:020000040800F2
:100000000010002049040008990400089904000821
:1000100000000000000000000000000000000000E0
:10002000000000000000000000000000990400082B
:100030000000000000000000990400089904000876
:1000400099040008000000009904000899040008C1
:10005000990400089904000899040008990400080C
:1000600000000000990400089904000899040008A1
:100070009904000899040008990400080000000091
:10008000F5020008000000000000000099040008CC
:100090000000000099040008990400089904000871
:1000A0000000000099040008000000009904000806
:1000B0000000000000000000000000000000000040
:1000C00010B5064C2378002B07D1054B002B02D02E
:1000D000044800E000BF0123237010BD040000208D
:1000E00000000000DC050008044B10B5002B03D015
:1000F0000349044800E000BF10BDC04600000000F6
:1001000008000020DC050008F7B50B680193002308
:1001100001259D40019A2A4095422DD10A79541E0D
:10012000012C16D884685F0026000324BC40A64337
:1001300086608468A4464C79BC4067463C43846032
:100140008488AC4384808D7984889D402C43A4B2FC
:10015000848003245D00AC40E443AA400768274044
:10016000076007683A430260C2681440C460CA79F5
:10017000C468AA402243C2600133102BC8D1F7BD26
:10018000008A0840411E8841C0B2704781617047B3
:1001900001857047002A01D0816170470185FCE725
:1001A0008378F0B50278002B1BD0FF2703243E0094
:1001B000C0251440E400A64091080D4B8900C918E1
:1001C000AD004B59B3431E0043789B013B40A34015
:1001D00033434B511F231A401E3B9340044A136084
:1001E000F0BD1F231A401E3B9340024AD367F7E736
:1001F00000E100E004E100E0044B5A69002902D06C
:1002000010435861704782435A61FBE70010024077
:10021000044BDA69002902D01043D8617047824349
:10022000DA61FBE70010024030B50388154C9BB241
:10023000A04206D08022D205904202D0124A9042BB
:1002400003D1702293434A881343104A904203D04B
:100250000F4A0D8913402B4303804B68C3620B8800
:100260000385A04208D00B4B984205D00A4B984218
:1002700002D00A4B984201D18B7A038601238382F4
:1002800030BDC046002C014000040040001000407A
:10029000FFFCFFFF004001400044014000480140D6
:1002A00001230288002902D01343038070479A4338
:1002B0000280FBE7C94389B201827047028A8389C1
:1002C00000209BB2114203D01940481E8141C8B2A0
:1002D0007047C94389B2018270478389002A02D0DE
:1002E0001943818170478B438381FBE710B5FFF78A
:1002F000F4FF10BD10B501210B48FFF7DFFF002808
:1003000010D001210848FFF7E4FF90201021C0051C
:10031000FFF736FF012242409020D2B21021C005E3
:10032000FFF738FF10BDC0460004004010B5902410
:10033000E40520000421FFF729FF04212000FFF736
:1003400027FF10BD70B5902605000824F6056BB296
:1003500002213000002B0ADAFFF718FF013C6D0084
:10036000E4B2FFF7E3FFEDB2002CF0D170BDFFF770
:100370000FFFF3E710B59024E40520000821FFF7F4
:1003800005FF08212000FFF703FF10BD802070B596
:1003900001218002FFF730FF902001241E26002556
:1003A0002149C0050E600C718D71FFF7ADFE9020E4
:1003B0003100C005FFF7ECFE21000220FFF728FF07
:1003C00096231A495B010B80194B1A484B604D80EC
:1003D000FFF72AFF21001748FFF76CFF22002100DA
:1003E0001448FFF783FF13482100FFF759FF10233C
:1003F000114803708470FFF7D3FE104D2878FFF783
:10040000A1FF0F4B1878FFF79DFFFFF7B3FF0D4BD0
:10041000013B002BFCD12B885B009BB22B80802BF7
:10042000EBD92C80E9E7C0464400002024000020DE
:10043000050D0000000400406400002000000020C2
:1004400020000020404B4C000D488546002103E071
:100450000C4B5B58435004310B480C4B42189A42EA
:10046000F6D30B4A02E0002313600432094B9A4290
:10047000F9D300F013F800F08DF8FFF787FFFEE7DF
:1004800000100020FC0500080000002004000020EF
:100490000400002070000020FEE7000013B50121D9
:1004A000344B35481A680A431A605A6802405A6049
:1004B0001A68324802401A601A68314802401A60CD
:1004C0005A68304802400F205A60DA6A8243DA6282
:1004D0001A6B2D4802401A635A6B80208A435A6374
:1004E00000229A60009201928022196852020A4307
:1004F0001A608002A0220400D20119680140019113
:100500000099013100910199002902D1009991428D
:10051000F3D11A68224000D001220192019A012AE7
:1005200026D11121194A11605A6819495A605A682E
:100530005A605A680A405A608022596852020A4337
:100540005A608022196852040A431A608022920479
:1005500019681142FCD003215A688A435A6002226A
:1005600059680A430C215A605A680A40082AFBD18C
:1005700013BDC046001002400CB8FF08FFFFF6FE96
:10058000FFFFFBFFFFFFC0FFACFEFFFF00200240AC
:10059000FF7FC0FF70B500260C4D0D4C641BA410EE
:1005A000A64209D1002600F019F80A4D0A4C641B36
:1005B000A410A64205D170BDB300EB589847013690
:1005C000EEE7B300EB5898470136F2E7F405000870
:1005D000F4050008F4050008F8050008F8B5C04661
:1005E000F8BC08BC9E467047F8B5C046F8BC08BCCD
:0405F0009E4670476C
:0405F400E900000812
:0405F800C100000836
:0405FC0001000000FA
:0400000508000449A2
:00000001FF
