:020000040800F2
:10000000001000203906000889060008890600084B
:1000100000000000000000000000000000000000E0
:100020000000000000000000000000008906000839
:100030000000000000000000890600088906000892
:1000400089060008000000008906000889060008EB
:100050008906000889060008890600088906000844
:1000600000000000890600088906000889060008CB
:1000700089060008890600088906000800000000BB
:10008000F5020008000000000000000089060008DA
:10009000000000008906000889060008890600089B
:1000A0000000000089060008000000008906000822
:1000B0000000000000000000000000000000000040
:1000C00010B5064C2378002B07D1054B002B02D02E
:1000D000044800E000BF0123237010BD040000208D
:1000E00000000000CC070008044B10B5002B03D023
:1000F0000349044800E000BF10BDC04600000000F6
:1001000008000020CC070008F7B50B680193002316
:1001100001259D40019A2A4095422DD10A79541E0D
:10012000012C16D884685F0026000324BC40A64337
:1001300086608468A4464C79BC4067463C43846032
:100140008488AC4384808D7984889D402C43A4B2FC
:10015000848003245D00AC40E443AA400768274044
:10016000076007683A430260C2681440C460CA79F5
:10017000C468AA402243C2600133102BC8D1F7BD26
:10018000008A0840411E8841C0B2704781617047B3
:1001900001857047002A01D0816170470185FCE725
:1001A0008378F0B50278002B1BD0FF2703243E0094
:1001B000C0251440E400A64091080D4B8900C918E1
:1001C000AD004B59B3431E0043789B013B40A34015
:1001D00033434B511F231A401E3B9340044A136084
:1001E000F0BD1F231A401E3B9340024AD367F7E736
:1001F00000E100E004E100E0044B5A69002902D06C
:1002000010435861704782435A61FBE70010024077
:10021000044BDA69002902D01043D8617047824349
:10022000DA61FBE70010024030B50388154C9BB241
:10023000A04206D08022D205904202D0124A9042BB
:1002400003D1702293434A881343104A904203D04B
:100250000F4A0D8913402B4303804B68C3620B8800
:100260000385A04208D00B4B984205D00A4B984218
:1002700002D00A4B984201D18B7A038601238382F4
:1002800030BDC046002C014000040040001000407A
:10029000FFFCFFFF004001400044014000480140D6
:1002A00001230288002902D01343038070479A4338
:1002B0000280FBE7C94389B201827047028A8389C1
:1002C00000209BB2114203D01940481E8141C8B2A0
:1002D0007047C94389B2018270478389002A02D0DE
:1002E0001943818170478B438381FBE710B5FFF78A
:1002F000F4FF10BD10B501210B48FFF7DFFF002808
:1003000010D001210848FFF7E4FF90201021C0051C
:10031000FFF736FF012242409020D2B21021C005E3
:10032000FFF738FF10BDC0460004004010B5902410
:10033000E40520000421FFF729FF04212000FFF736
:1003400027FF10BD70B5902605000824F6056BB296
:1003500002213000002B0ADAFFF718FF013C6D0084
:10036000E4B2FFF7E3FFEDB2002CF0D170BDFFF770
:100370000FFFF3E710B59024E40520000821FFF7F4
:1003800005FF08212000FFF703FF10BDF8B501238A
:100390001C4D08262B8000231B4C23802878FFF758
:1003A000D1FF0020FFF7CEFFFFF7E4FF174F9020AB
:1003B0001021C005013FFFF7E9FE002FF7D12B8880
:1003C000013E5B002B80002EE8D12E8080239026FA
:1003D00008252380F6050020FFF7B4FF2078FFF7FB
:1003E000B1FFFFF7C7FF094F10213000013FFFF7B2
:1003F000CDFE002FF8D12388013D5B082380002D1E
:10040000E9D1F8BD0000002020000020A0860100F6
:10041000F8B5002308261C4C1C4D238001332B808B
:100420002078FFF78FFF2878FFF78CFFFFF7A2FFF8
:10043000174F90201021C005013FFFF7A7FE002FA6
:10044000F7D12B88013E5B002B80002EE8D1802362
:100450002E80238008362078FFF774FF2878FFF776
:1004600071FFFFF787FF0A4F90201021C005013F61
:10047000FFF78CFE002FF7D12388013E5B08238015
:10048000002EE8D1F8BDC04600000020200000206A
:10049000A0860100F8B5012308261F4D1F4C2B80B4
:1004A0007F3323802878FFF74DFF2078FFF74AFF3E
:1004B000FFF760FF1A4F90201021C005013FFFF7A2
:1004C00065FE002FF7D12B88013E5B002B8023882F
:1004D0005B082380002EE5D180232B807F3B238087
:1004E00008362878FFF72EFF2078FFF72BFFFFF75D
:1004F00041FF0B4F90201021C005013FFFF746FE42
:10050000002FF7D12B88013E5B082B8023885B00EE
:100510002380002EE5D1F8BD00000020200000203F
:10052000A0860100F7B50827002480231A4E1B4D32
:10053000338080232B8000230093009BBB4207DB8A
:1005400001236400A4B2013F1C43002FEDD1F7BD8D
:1005500030882B88204323433080C0B22B80FFF7A4
:10056000F1FE2878FFF7EEFEFFF704FF0C4B019336
:1005700090201021C005FFF709FE019B013B01936C
:10058000002BF5D133885B0833802B885B082B80E8
:10059000009B0133D0E7C04600000020200000206F
:1005A00020A10700802070B501218002FFF724FE02
:1005B000902001241E2600251A49C0050E600C71EA
:1005C0008D71FFF7A1FD90203100C005FFF7E0FD20
:1005D00021000220FFF71CFE962313495B010B80CC
:1005E000124B13484B604D80FFF71EFE2100104850
:1005F000FFF760FE220021000D48FFF777FE0C4850
:100600002100FFF74DFE10230A4803708470FFF7A6
:10061000C7FDFFF7BBFEFFF7FBFEFFF73BFFFFF752
:1006200081FFF6E74400002024000020050D0000B3
:1006300000040040640000200D488546002103E0CE
:100640000C4B5B58435004310B480C4B42189A42F8
:10065000F6D30B4A02E0002313600432094B9A429E
:10066000F9D300F013F800F08DF8FFF79BFFFEE7D9
:1006700000100020EC07000800000020040000200B
:100680000400002070000020FEE7000013B50121E7
:10069000344B35481A680A431A605A6802405A6057
:1006A0001A68324802401A601A68314802401A60DB
:1006B0005A68304802400F205A60DA6A8243DA6290
:1006C0001A6B2D4802401A635A6B80208A435A6382
:1006D00000229A60009201928022196852020A4315
:1006E0001A608002A0220400D20119680140019121
:1006F0000099013100910199002902D1009991429C
:10070000F3D11A68224000D001220192019A012AF5
:1007100026D11121194A11605A6819495A605A683C
:100720005A605A680A405A608022596852020A4345
:100730005A608022196852040A431A608022920487
:1007400019681142FCD003215A688A435A60022278
:1007500059680A430C215A605A680A40082AFBD19A
:1007600013BDC046001002400CB8FF08FFFFF6FEA4
:10077000FFFFFBFFFFFFC0FFACFEFFFF00200240BA
:10078000FF7FC0FF70B500260C4D0D4C641BA410FC
:10079000A64209D1002600F019F80A4D0A4C641B44
:1007A000A410A64205D170BDB300EB58984701369E
:1007B000EEE7B300EB5898470136F2E7E40700088C
:1007C000E4070008E4070008E8070008F8B5C04699
:1007D000F8BC08BC9E467047F8B5C046F8BC08BCDB
:0407E0009E4670477A
:0407E400E900000820
:0407E800C100000844
:0407EC000100000008
:0400000508000639B0
:00000001FF
