:020000040800F2
:10000000001000205D020008AD020008AD020008EB
:1000100000000000000000000000000000000000E0
:10002000000000000000000000000000AD02000819
:100030000000000000000000AD020008AD02000852
:10004000AD02000800000000AD020008AD0200088B
:10005000AD020008AD020008AD020008AD020008C4
:1000600000000000AD020008AD020008AD0200086B
:10007000AD020008AD020008AD020008000000005B
:10008000AD0200080000000000000000AD02000802
:1000900000000000AD020008AD020008AD0200083B
:1000A00000000000AD02000800000000AD020008E2
:1000B0000000000000000000000000000000000040
:1000C00010B5064C2378002B07D1054B002B02D02E
:1000D000044800E000BF0123237010BD0000002091
:1000E00000000000F0030008044B10B5002B03D003
:1000F0000349044800E000BF10BDC04600000000F6
:1001000004000020F0030008F7B50B6801930023FA
:1001100001259D40019A2A4095422DD10A79541E0D
:10012000012C16D884685F0026000324BC40A64337
:1001300086608468A4464C79BC4067463C43846032
:100140008488AC4384808D7984889D402C43A4B2FC
:10015000848003245D00AC40E443AA400768274044
:10016000076007683A430260C2681440C460CA79F5
:10017000C468AA402243C2600133102BC8D1F7BD26
:100180008161704701857047044B5A69002902D08C
:1001900010435861704782435A61FBE700100240E8
:1001A00010B59024E40520000421FFF7E9FF0421A5
:1001B0002000FFF7E7FF10BD70B59026050008246A
:1001C000F6056BB202213000002B0ADAFFF7D8FFE8
:1001D000013C6D00E4B2FFF7E3FFEDB2002CF0D17B
:1001E00070BDFFF7CFFFF3E710B59024E4052000C2
:1001F0000821FFF7C5FF08212000FFF7C3FF10BD4E
:10020000802070B501218002FFF7BEFF90201E25DF
:10021000002301240F49C0050D608B710C71FFF79D
:1002200073FF90202900C005FFF7ACFF2500E6B260
:100230003000FFF7C1FF3000FFF7BEFFFFF7D4FF2C
:10024000054B013B002BFCD16400A4B2802CEED9FD
:100250002C00ECE730000020404B4C000D48854658
:10026000002103E00C4B5B58435004310B480C4B0E
:1002700042189A42F6D30B4A02E00023136004327C
:10028000094B9A42F9D300F013F800F08DF8FFF70C
:10029000B7FFFEE700100020100400080000002057
:1002A00000000020000000205C000020FEE70000AD
:1002B00013B50121344B35481A680A431A605A684D
:1002C00002405A601A68324802401A601A6831487F
:1002D00002401A605A68304802400F205A60DA6AB9
:1002E0008243DA621A6B2D4802401A635A6B8020EF
:1002F0008A435A6300229A60009201928022196810
:1003000052020A431A608002A0220400D201196836
:10031000014001910099013100910199002902D118
:1003200000999142F3D11A68224000D00122019233
:10033000019A012A26D11121194A11605A681949D6
:100340005A605A685A605A680A405A60802259684E
:1003500052020A435A608022196852040A431A6002
:100360008022920419681142FCD003215A688A4302
:100370005A60022259680A430C215A605A680A409E
:10038000082AFBD113BDC046001002400CB8FF087C
:10039000FFFFF6FEFFFFFBFFFFFFC0FFACFEFFFF0E
:1003A00000200240FF7FC0FF70B500260C4D0D4CB1
:1003B000641BA410A64209D1002600F019F80A4DCA
:1003C0000A4C641BA410A64205D170BDB300EB58C3
:1003D00098470136EEE7B300EB5898470136F2E74D
:1003E0000804000808040008080400080C040008B9
:1003F000F8B5C046F8BC08BC9E467047F8B5C04684
:08040000F8BC08BC9E467047E1
:04040800E9000008FF
:04040C00C100000823
:040000050800025D90
:00000001FF
