:020000040800F2
:1000000000100020D53400082535000825350008EB
:1000100000000000000000000000000000000000E0
:10002000000000000000000000000000253500086E
:10003000000000000000000025350008B133000872
:10004000253500080000000025350008253500088A
:1000500025350008B9150008FD15000841160008EF
:10006000000000002535000825350008253500086A
:10007000253500082535000825350008000000005A
:10008000A519000800000000000000002535000848
:10009000000000002535000825350008253500083A
:1000A000000000002535000800000000051B0008C6
:1000B0000000000000000000000000000000000040
:1000C00010B5064C2378002B07D1054B002B02D02E
:1000D000044800E000BF0123237010BDF0010020A0
:1000E000000000009C400008044B10B5002B03D01A
:1000F0000349044800E000BF10BDC04600000000F6
:10010000F40100209C40000802B4714649084900EF
:10011000095C49008E4402BC7047C04603B4714676
:10012000490840004900095A49008E4403BC704701
:10013000002243088B4274D303098B425FD3030A26
:100140008B4244D3030B8B4228D3030C8B420DD339
:10015000FF22090212BA030C8B4202D312120902C7
:1001600065D0030B8B4219D300E0090AC30B8B4205
:1001700001D3CB03C01A5241830B8B4201D38B03B3
:10018000C01A5241430B8B4201D34B03C01A524158
:10019000030B8B4201D30B03C01A5241C30A8B429B
:1001A00001D3CB02C01A5241830A8B4201D38B0286
:1001B000C01A5241430A8B4201D34B02C01A52412A
:1001C000030A8B4201D30B02C01A5241CDD2C3099C
:1001D0008B4201D3CB01C01A524183098B4201D318
:1001E0008B01C01A524143098B4201D34B01C01A03
:1001F000524103098B4201D30B01C01A5241C3087B
:100200008B4201D3CB00C01A524183088B4201D3E9
:100210008B00C01A524143088B4201D34B00C01AD5
:100220005241411A00D20146524110467047FFE741
:1002300001B5002000F0F0F802BDC0460029F7D05B
:1002400076E7704703460B437FD4002243088B4276
:1002500074D303098B425FD3030A8B4244D3030B4D
:100260008B4228D3030C8B420DD3FF22090212BA12
:10027000030C8B4202D31212090265D0030B8B428E
:1002800019D300E0090AC30B8B4201D3CB03C01A78
:100290005241830B8B4201D38B03C01A5241430B53
:1002A0008B4201D34B03C01A5241030B8B4201D343
:1002B0000B03C01A5241C30A8B4201D3CB02C01AAE
:1002C0005241830A8B4201D38B02C01A5241430A26
:1002D0008B4201D34B02C01A5241030A8B4201D315
:1002E0000B02C01A5241CDD2C3098B4201D3CB01BC
:1002F000C01A524183098B4201D38B01C01A52416B
:1003000043098B4201D34B01C01A524103098B426E
:1003100001D30B01C01A5241C3088B4201D3CB0059
:10032000C01A524183088B4201D38B00C01A52413C
:1003300043088B4201D34B00C01A5241411A00D2EC
:1003400001465241104670475DE0CA0F00D0494255
:10035000031000D34042534000229C4603098B42C5
:100360002DD3030A8B4212D3FC22890112BA030A4D
:100370008B420CD3890192118B4208D389019211CF
:100380008B4204D389013AD0921100E08909C30954
:100390008B4201D3CB01C01A524183098B4201D356
:1003A0008B01C01A524143098B4201D34B01C01A41
:1003B000524103098B4201D30B01C01A5241C308B9
:1003C0008B4201D3CB00C01A524183088B4201D328
:1003D0008B00C01A5241D9D243088B4201D34B0043
:1003E000C01A5241411A00D20146634652415B1085
:1003F000104601D34042002B00D549427047634666
:100400005B1000D3404201B5002000F005F802BDAA
:100410000029F8D016E770477047C0468446101C84
:1004200062468C46191C634600E0C0461FB500F0CA
:10043000D1F8002801D40021C8421FBD10B500F03A
:100440002BF84042013010BD10B500F0C3F8002871
:1004500001DB002010BD012010BDC04610B500F02A
:10046000B9F8002801DD002010BD012010BDC046F4
:1004700010B500F04BF8002801DC002010BD012071
:1004800010BDC04610B500F041F8002801DA002088
:1004900010BD012010BDC046F0B54F464646D646B9
:1004A0005C00C0B51F03DB0F9A46174B0E034D00CF
:1004B00084468046360B6D0DC90F91463F0B640D87
:1004C00001209D4208D09C4201D0A5420BD01CBC0B
:1004D00090469946A246F0BD63463343F7D1AC42FD
:1004E000F5D13A43F3D10120BE42F0D1C845EED157
:1004F000514507D0002DEAD163461E433000461E09
:10050000B041E4E70020E2E7FF070000F0B5454610
:10051000DE4657464E46E0B51F033D0B2C4F0E03FB
:100520004C00AB465D008446360B640DC90F904607
:100530006D0DDB0FBC422AD0254FBD422DD0002CC3
:100540000FD130430700814678427841C0B2002D78
:1005500017D15F463A4314D14B460020002B0AD0F6
:1005600006E0002D02D15846024301D0994218D02E
:100570004842012108433CBC90469946A246AB46FE
:10058000F0BD0028F2D00120013B1843F3E737000B
:100590000743D1D002204042EDE75F461743CED05B
:1005A000F8E7AC42E4DC03DA481E01210843E2E745
:1005B0005E45DDD806D000205E45DCD20123481E12
:1005C0001843D8E7C445D3D80020C445F6D3D2E7B2
:1005D000FF070000F0B54E464546DE4657465C0034
:1005E000E0B51F03DB0F99462A4B0E034D00C90FE0
:1005F0008446360B6D0D8B4690463F0B640D9D4235
:1006000020D0244B9C4222D0002D12D130434342B3
:100610004341DBB2002C1FD0002B0CD04B460120F5
:10062000013B034318003CBC90469946A246AB46AA
:10063000F0BD002C16D0CB4517D05B4659420123A4
:100640000B43EFE7310002230143EBD1D9E7390037
:1006500002231143E6D1D7E73A43DDD10023002836
:10066000E0D0EAE73A43E6D1E7E7A542E5DC05DB7F
:10067000BE42E2D807D00023BE42D3D2594601235E
:1006800001390B43CEE7C445D7D80023C445F5D381
:10069000C8E7C046FF070000F0B557464546DE46AE
:1006A0004E46E0B50C0398464E00230B87B007007A
:1006B00092469B46760DCD0F002E6BD06D4B9E4221
:1006C00035D080245B46420F2404DB0014431C43D6
:1006D000C3009946684BA3469C4600230027664406
:1006E000029343461C035A00DB0F5046240B520D65
:1006F000984600D176E05F4B9A426DD08023410F3F
:100700001B040B435C49E4008C461C43C3000020DF
:1007100062444146B6186940721C019194460743F1
:100720000F2F00D9B0E0554ABF00D25997465B461B
:100730000343994600D087E000239B4602330827F5
:100740000293CEE742460192022867D0032800D1E7
:100750000EE2012800D062E1002300240022994625
:1007600001990140CDB2002112030B0D120B1B05A4
:100770001343434A240513401C436400ED076408F7
:100780002C434846210007B03CBC90469946A246FF
:10079000AB46F0BD034399464FD05B46002B00D1DA
:1007A00089E1584600F084FD03000B3B1C2B00DD63
:1007B0007AE11D22D31A3A0001005C46DA4008397A
:1007C0008C4013008F4023439B46B94600232D4E97
:1007D0000027361A029384E7534623432AD1002484
:1007E000022096E75346234320D0002C00D157E146
:1007F000200000F05DFD03000B3B1C2B00DD49E1F8
:100800001D21CB1A51460200D9405346083A944064
:1008100093400C431B4A121A00207AE70125019BE2
:10082000144C1D400023002299469CE7002400221E
:1008300001206EE7534603206BE700239B460133FC
:100840000427002602934CE7032381460C270293DA
:1008500047E780220023002512039946054C82E7D2
:100860005C464B4602986FE75C464B460195029802
:100870006AE7C046FF07000001FCFFFFB440000824
:10088000FFFF0F800DFCFFFF4A464946170C1A0C6C
:100890001B041B0C08041900000C4143150088467A
:1008A00019007D4379430395894629001500454386
:1008B0004D44029545462D0CAA46029D5544A94536
:1008C00006D98A46802149028946CA445146039185
:1008D000290C0491414609042D04090C884629007D
:1008E000250C24044144240C0591210041438846F1
:1008F000210079438A466843414650448146080CAA
:1009000048446F43824503D98021490289464F44B8
:10091000010C894639004944029141460F0404996B
:100920003F0C88460004C019804441460491594652
:100930000F0C0904090C884659438A463900514373
:10094000894641464A435146090C8B467B43D2189F
:100950005A44934203D980235B029B46D9445146B3
:100960000904090C8A46414661437C43130C120476
:100970004B445244A1468A463C0041466C434D4399
:1009800051464D440F0C7D19A94503D980214902D8
:1009900088464444049F0399B84641448B468345A6
:1009A000804141428846514608042F04000C3F18FC
:1009B0005846029910188946904292414F44BA46CF
:1009C000524299469346C244D144CB448F42BF41E0
:1009D000C245894199459B41934592417F42494295
:1009E0002D0C52420F435B4213437F19FF185B46A5
:1009F0003C19DB0D059A64021C43430213435D1E40
:100A0000AB415A46C00D034352021343E20156D58F
:100A100001205A0803401343E207134364085A486D
:100A2000604400284DDD5A0709D00F221A40042ADD
:100A300005D01A1D9A429B415B42E4181300E20163
:100A400004D58020514AC00014406044504A90426E
:100A500000DDE3E60125DB0862071A436402019B1F
:100A60009146220B4405640D1D407CE680225946C8
:100A70001203114208D0144206D122431203120B72
:100A800045469946434C6EE65B461A431203120BE9
:100A9000404C68E603005446283B9C400023B9E6DE
:100AA00000F006FC2030A6E60300283B9F40002310
:100AB000BB4699468AE600F0FBFB203074E6B4465C
:100AC000ADE701252A1A382A06DD019B00241D40C6
:100AD00000230022994646E61F2A21DC202520001B
:100AE000AD1A1E00AB40A840D6405D1EAB4130435E
:100AF0001843D440430709D00F230340042B05D0EB
:100B00000300181D98429B415B42E418230221D543
:100B10000125019B01241D4000230022994622E665
:100B20001F2521006D42281AC1400800202A1DD02F
:100B30005F35AA1A944023435C1EA3410725034353
:100B40001D400022002D09D00F2200241A40180059
:100B5000042AD6D1030065076402220BDB082B436D
:100B600001259946019B00241D40FCE50024E2E795
:100B7000802201251203224301991203120B0D401A
:100B80009946044CEFE5C046FF030000FFFFFFFE5F
:100B9000FE070000FF070000F0B54646D6464F4668
:100BA0000C03C0B5CD0F4E00610A440F0C43C100C9
:100BB0005800400D84468A460F001903500F490A19
:100BC0000143C648760DA846DB0FD200844500D10C
:100BD000D8E001204340AB4200D1A6E06046351A80
:100BE000002D00DC05E1002810D10B00134300D1DB
:100BF000D7E06B1E002B00D04BE153469F1ABA453D
:100C00008041641A4042241A01261EE0B34B9E42E2
:100C100048D080231B041943382D00DD19E11F2D16
:100C200000DD4CE120230F005B1B10009A409F4029
:100C3000E840531E9A41E940074317435346DF1BE0
:100C4000611ABA45A44164420C1B230200D4C5E0DA
:100C50006402650A002D00D1F6E0280000F028FBB0
:100C60000300083B1F2B00DDE9E020223C00D21AE4
:100C70009D40D4409F4025439E4200DDDBE09E1B0B
:100C8000731C1F2B00DD0AE120223800D21A290034
:100C900097402C009140D8407A1E9741DC400026B6
:100CA00001430F437B0709D00F233B40042B05D0A2
:100CB0003B1DBB42BF417F42E4191F00230225D5E3
:100CC000864B01369E4200D1AFE0854B01251C408A
:100CD00043466207FF08640276051743240B760D2E
:100CE0001D4000212403230B0C0D7E4A24051C43C8
:100CF0001440330523435B00ED075B082B433800AA
:100D000019001CBC90469946A246F0BD01254346F9
:100D10006207FF081743E4081D40704B9E4236D01F
:100D200024037605240B760DDBE76346F31A002BCC
:100D300000DC94E06046002835D068488642B1D097
:100D400080273F043943382B00DCFDE00A431700BD
:100D500000217A1E97415744574580410919444262
:100D60000C1923023AD55D4B01369E4200D14BE16E
:100D700001225B4B1C407B0817401F43E2071743CF
:100D800064088FE70800104300D024E721E7230020
:100D90003B4300D1B9E18022120314432403240B06
:100DA0009FE72E007EE70800104300D1CAE0581EDE
:100DB0008446002800D0E7E0524452458041641840
:100DC0004042241817000126230207D50226CFE748
:100DD00064462C4300D1B3E12C0067467B0700D06A
:100DE00062E76307FF081F4301254346E4081D40EF
:100DF00093E7002D78D1751C6D056D0D012D00DC7C
:100E0000F2E05046801A8245BF41651A7F42ED1BD1
:100E10008446280200D48CE05046171ABA42924108
:100E20000C1B5542651B984614E7012543460024D8
:100E30001D40002755E72A4CF61A2C4032E73D00AA
:100E400028388540002717E7380000F031FA2030B5
:100E500006E70A43170000217A1E9741EEE6002BB1
:100E600000D0E5E0731C9C465B055B0D012B00DCAC
:100E70009FE01A4B9C4500D1C5E052445245804149
:100E8000641840422418E70752081743640866466E
:100E900008E71248854200D185E01D00BCE6290024
:100EA0001F3EF140202B00D17FE04022D31A9D400D
:100EB0002F437D1EAF4100240F4300268EE72B00F9
:100EC0000F00203BDF40202D71D040235D1BA94047
:100ED0000A43511E8A4100211743AFE6FF07000075
:100EE000FFFF7FFFFFFF0F80002E3ED0B34EB445C3
:100EF00045D0802636046D423443382D00DDA8E00D
:100F00001F2D00DD1FE1202627005046761BB7402D
:100F1000E84007435046B040461EB041EC403843DD
:100F2000171ABA4292410C1B5242A41A66469846BE
:100F30008BE6644667462C4300D08BE600250026EE
:100F40000027EAE61E00ADE61F2B60DC2027F81A1A
:100F50000F00844687401000D84007436046824017
:100F6000501E8241D9401743F5E6260050460643FD
:100F700005D0ED43002DD3D0904EB445BDD10C002B
:100F80001700664698468DE68C4883420BD0634630
:100F9000D9E6002D00D096E00800104300D1E2E031
:100FA0000C0017009846854E7CE6002580E700215E
:100FB0008EE7230050460343002E00D0A8E0002B0C
:100FC00000D1DEE00B00134300D16BE652445245E2
:100FD00080416418404224181700230200D4FDE623
:100FE000774B66461C405DE6250050460543002EC3
:100FF000CFD1002D4FD10C00144300D1A0E00C0044
:10100000170098464EE666460024002785E61F0036
:101010000800203FF8400700202B00D18EE0402040
:10102000C31A99400A43511E8A410021174392E690
:10103000002E14D126005046064362D0DB43002B1D
:101040005CD187189742924164185242A4186646B0
:1010500087E650462043441EA041002460E7574ED7
:10106000B4454ED0802636045B423443382B00DD35
:101070007FE01F2B00DD8BE0202627005046F61A6C
:10108000B740D84007435046B040461EB0410743E2
:10109000DC40BF18D6E70D00154300D102E65046EC
:1010A000801A8245BF41651A7F42ED1B84462802A3
:1010B00000D48DE65046171ABA4292410C1B524298
:1010C000A41A9846EEE50D00154300D16BE7504693
:1010D0006707C00807438020E4080003044207D0E4
:1010E000CD08054204D12C009846D70849070F4384
:1010F0007B0FE4001C43FF00304ED3E52F4EB44578
:10110000B4D10C0017006646CCE500270024E8E5C2
:10111000002B39D00B00134300D144E7C008670708
:1011200007438020E40800030442E1D0CB080342D7
:10113000DED1D70849070F431C00D9E7002171E72A
:1011400000250027E9E52E002700203EF740202D4E
:101150002FD04026751BAC4050462043441EA04172
:1011600000243843DCE6802400252403134E0027A6
:10117000D3E5504620430700781E87410024BF185E
:1011800060E70C0017008DE50C0017000B4E89E599
:101190001E002700203EF740202B0CD04026F31ADB
:1011A0009C4050462043441EA04107430024BF18E2
:1011B00048E70024D0E70024F3E7C046FF0700001B
:1011C000FFFF7FFF30B5134D0A034B00120B5B0D81
:1011D000C90F0024AB4210DD0F4CA3420FDC80246A
:1011E0000E4D64032243ED1A1F2D0BDD0C48C31A6C
:1011F000DA405442002900D11400200030BD094BD0
:10120000CC18FAE7084CE840A44663449A400243ED
:10121000EFE7C046FE0300001D0400003304000099
:1012200013040000FFFFFF7FEDFBFFFF70B50028F8
:1012300030D0C317C4185C40C50F200000F038F848
:10124000174B184A1B1AD21A1F2A18DD164AD21A2F
:101250009440002224035B05240B5B0D0021100049
:1012600024030A0D240B12052243104C1B052240B7
:1012700013435B00ED075B082B43190070BD210091
:1012800091400A000B21081AC4405B052403240B7B
:101290005B0DE3E70025002300240022DEE7C046C3
:1012A0001E0400003304000013040000FFFF0F8041
:1012B0001C2101231B04984201D3000C10391B0A86
:1012C000984201D3000A08391B09984201D300094A
:1012D000043902A2105C40187047C04604030202A1
:1012E00001010101000000000000000010B50A4CDF
:1012F0002060012001F08CFA002001F04FF901F08C
:1013000079F9042800D110BD2368002BF7D0236899
:101310000A209847F3E7C0460C020020130010B5DE
:101320000A000100180002F0B4F910BD10B5074B17
:10133000074A1978002902D101221A7010BD1168DC
:101340000029F6D013680A209847F0E71002002021
:101350000C020020F0B51600002485B000910A00B0
:10136000070001003000039402F084F9030020001C
:10137000A34223D0FFF7DAFF01F01EF9342001F079
:1013800033F93400009AA31B9A4205D801F024F9DE
:101390000020154B187011E0BD1B2D19AB059B0DDE
:1013A00001930DD1280001F049F9042808D001F07B
:1013B00013F96A4602200C4B12791A7005B0F0BD81
:1013C0002100042203A802F064F90399280001F027
:1013D00051F904340428D5D001F0FEF80022024B64
:1013E00003201A70EAE7C0461002002073B5060019
:1013F000FC200D00C0030121140001F0F5FA68463D
:1014000001F09CF9052E26D83000FEF77DFE17036B
:101410000F111315194B01221100A940042C1AD8E1
:101420002000FEF771FE0E191E232800144BF2E770
:10143000144BF0E7144BEEE7144BECE79023DB057D
:10144000E9E7002268460271C27189B20091180072
:10145000694601F037F973BD002268460271013216
:10146000F2E70022684602710232EDE76846027137
:1014700000228271E9E768460271FAE70004004839
:1014800000080048000C0048001000480014004804
:10149000F7B507000C001E0005282AD8FEF734FE19
:1014A00032032A2C2E30012521003800FFF79EFF41
:1014B0000121080001F0A4FA2100280001F028FB16
:1014C00001231A00A2406946009200220A719E423E
:1014D0001ED0964218D0022E1CD06A4668469371E0
:1014E00001F01AF80C4B089AA4000520E25000F015
:1014F000C1F8F7BD0225D7E70325D5E70425D3E7D3
:101500000525D1E70025CFE7082269464A71E4E7BF
:101510000C22FAE71022F8E71402002010B50B00A5
:1015200005280AD8FEF7F0FD12030A0C0E10094830
:101530000121994089B201F013F910BD0648F7E77F
:101540000648F5E70648F3E70648F1E79020C005AE
:10155000EEE7C0460004004800080048000C0048C0
:10156000001000480014004810B50A0000230528A8
:101570000BD8FEF7C9FD14030C0E10120948012107
:10158000914089B201F0E6F80300180010BD06484A
:10159000F5E70648F3E70648F1E70648EFE790204D
:1015A000C005ECE70004004800080048000C0048B3
:1015B000001000480014004810B5012000F0DEFFC4
:1015C000002806D00C4B1A68002A11D1012000F027
:1015D000DFFF022000F0D2FF002808D0064B5A6837
:1015E000002A01D05B689847022000F0D1FF10BDAF
:1015F0001B689847EAE7C0461402002010B5042093
:1016000000F0BCFF002806D00C4B9A68002A11D1CC
:10161000042000F0BDFF082000F0B0FF002808D033
:10162000064BDA68002A01D0DB689847082000F0F2
:10163000AFFF10BD9B689847EAE7C0461402002040
:1016400070B5042401263500A540280000F096FF5F
:10165000002809D0064BA200D158002901D0D35848
:101660009847280000F094FF0134102CEBD170BD96
:10167000140200200123F7B5144E01ADAB7033788E
:101680002870070028006B7001F082F83478104849
:10169000002303210E2C0DD80B0063430A00C01851
:1016A0002900013401F0F5FF3470F7BD0133DAB2DF
:1016B0009442FAD90A005A43865CBE42F6D1801899
:1016C0002900032201F0E5FFEFE7C0467D0200207C
:1016D0005002002073B50024050001A88470057035
:1016E00001F056F80A4B0B48197823000334DAB29C
:1016F000914209D95A1C63431E5CAE4205D1C01801
:101700000322002101F0CEFF73BD1300EFE7C046B6
:101710007D020020500200208020F0B5400189B0F9
:101720000D0001211C0001F06BF9802001AF0121A7
:10173000800201F059F9380001F000F80226082370
:1017400039002D4801933E7100F0BCFF00220321B7
:10175000294801F00BF8202339002748019300F0B5
:10176000B1FF00220521244801F000F810233900C0
:101770002148019300F0A6FF002204211E4800F03A
:10178000F5FF822203A952004A80E0220023D20002
:101790000B808A80012D2BD1CE800D8180239B0070
:1017A0004B811023012C03D00023022C00D03823BE
:1017B0008B810024072311480B82CC8101F050F962
:1017C00021000E4801F090F980210C48490101F0F8
:1017D0007BF90121094801F06DF90221074801F068
:1017E00091F90028F9D0054801F07AF909B0F0BD67
:1017F000CB800B81D2E7C046000400480030014096
:10180000802010B50021400101F0FAF810BD8020C1
:1018100010B50121400101F0F3F810BD10B50948E1
:1018200001F05CF90221074801F06CF90028F9D0B9
:101830000121044801F066F90028F9D0014801F0BF
:101840004FF910BD00300140F0B53E4D87B00400A7
:1018500028000191170001F005F8012C03D0032C9A
:101860001AD007B0F0BD80202100000101F0C8F8B7
:10187000354B364E1F600D23009303AC200001F062
:1018800097F9019B082BECD81800FEF73DFC0F35AB
:101890003D454C4F515355000121022001F0BCF849
:1018A0002B4B2C4E1F6010230093E6E72A4B286831
:1018B00063602A49FEF73CFCFA239B00584300234F
:1018C00023810023208021003000638001F034F95F
:1018D0003A00531E9A413000D2B2012101F097F92B
:1018E0006B4600201856002F28D0FFF7C3FE0121B9
:1018F000300001F06AF9B4E7174B286863601749B4
:10190000FEF716FC6423D9E7134B2868636013497C
:10191000FEF70EFC0A23D1E70F4B636028680F49DE
:10192000FEF706FCCBE7F623FF33F6E76523F4E783
:101930001523F2E70B23F0E70223EEE7FFF7CAFED9
:10194000D5E7C04680020020A8020020002C0140FC
:10195000AC02002000040040E903000040420F00F8
:1019600010B5012805D0032805D1044801F02BF952
:1019700010BD0348FAE70020FAE7C0460004004023
:10198000002C014010B5012805D0032802D10348DE
:1019900001F017F910BD0248FAE7C0460004004004
:1019A000002C014010B500F0C5F80121084801F0F5
:1019B00016F90100012808D1054801F01BF9054B73
:1019C0001A68002A01D01B68984700F0B4F810BDCF
:1019D00000040040AC0200207047000030B5010058
:1019E00089B015001C00012854D18020C00101F0ED
:1019F00007F82C4B002C4FD01C60FC200121C003A9
:101A000000F0F2FF684600F099FE802390206A46BD
:101A10009B000093FF3BFF3B6946C005137100F03C
:101A200051FE902001220921C00500F09FFE002CEC
:101A30000DD080239020DB006946C005009300F0A4
:101A400041FE902001220A21C00500F08FFE0023F4
:101A5000029507930C229C4200D1043A1248059348
:101A600004930393069201F0D7F802A90E4801F0FF
:101A700043F901210C4801F09BF92200531E9A41C1
:101A80000948D2B2094901F0A5F91B20002C06D063
:101A9000FFF7F0FD09B030BD054A1A60ADE7FFF76A
:101AA00019FEF7E7B00200200038014005010500EB
:101AB000D9190008013810B504280FD8FEF724FB07
:101AC00015030F1113000A4C89B2200001F07AF9B6
:101AD0008021200001F095F90028F9D010BD054CB7
:101AE000F2E7054CF0E7054CEEE7054CECE7C046A5
:101AF0000044004000480040004C004000500040BE
:101B00000038014070B5084C00F014F8074B200075
:101B10001D6801F05BF9C0B2A8470549200001F03B
:101B200076F900F008F870BD00380140B0020020DE
:101B300005010500704770470FB404B070470000FE
:101B4000F7B50C4E0190336800200D001400984743
:101B5000094F01983B68984765190190AC4204D140
:101B60003368012098470198FEBD20783B6898476C
:101B70000134F3E7C0020020C4020020F7B50700DB
:101B80000D4D00202B681400019198470B4E380032
:101B9000336898470700019BE3180193019B9C421F
:101BA00004D12B68012098473800FEBDFF20336820
:101BB000984720700134F1E7C0020020C4020020E1
:101BC00010B5044C20600448016004490A60044ACE
:101BD000136010BDB8020020C0020020BC0200202B
:101BE000C4020020F0B5130A8FB0DBB2040A0193DF
:101BF0000B92E2B20392019A09900A910123002A02
:101C000000D00623DBB20893019B5A1E93419A1C15
:101C10005B00069300230792029305936B461B7AA1
:101C200000930D2B00D9C7E01800FEF777FA0E00DD
:101C300019005F0066006D007300FD0089009200CE
:101C40009A00A300B000B900BF0009AB9A7A38230C
:101C5000002A00D140330CAA009C137001270EE02B
:101C6000062409A9CB790CAA5B0023401370097ADA
:101C7000022933D0032935D0012935D1009F6E4D7B
:101C80006E4E2900029A6E48336898472900002555
:101C9000336822006B48984704951022674E08ABC2
:101CA0009B18595D684833689847102208AB9B1809
:101CB0005B5D049A01355A40EBB20492BB42ECD30F
:101CC0002020BDB20CAA29002043FFF739FF0306EC
:101CD00000D47EE000980130C0B278E008210B43C8
:101CE0001370CBE72021FAE72821F8E76A46127E35
:101CF0000CAB01271A703C00C1E76A46127F0CAB9F
:101D00001A7001270224BAE70324039A0CAB22407D
:101D10001A70A3E709AA91780CAB1970D178032740
:101D20005970117999705179D97092791A71039B10
:101D3000012B03D00427022B00D0009F0B249EE729
:101D40007F2209AB1B78012713400CAA13700524CE
:101D500095E700220CAB1A700123072405931F009E
:101D60008DE76A462021521812780CAB1A700127B1
:101D70001D2484E76A46354B12791A70019B002BAB
:101D800052D002220CAB1A7001271C2477E7019B6A
:101D9000002B49D025220CAB1A70012704246EE7D2
:101DA000019B002B40D00CAB0222A2E7019B002B31
:101DB00002D020220CAB1A700022E2201100FFF7A3
:101DC000BFFE0022E1201100FFF7BAFE00200FB095
:101DD000F0BD3A0000210CA801F064FC29000025A8
:101DE0000CAA2000FFF7CAFE3368220012491848E7
:101DF00098472E00102208AB9B18595D0F4B1248D4
:101E00001B689847102208AB9B185B5D01355E404C
:101E1000EBB2BB42EED3059B002B05D1049BB34232
:101E200002D0072C00D055E7029B01330293FF2B11
:101E300000D0F3E61800CAE7F440000800000020D4
:101E400046410008544100082D410008B40200201A
:101E500033410008F0B585B001931700019A0400E2
:101E60000D00FF23202A37D802AA01210020FFF706
:101E700085FE102302062FD402AB1A7801231A42E2
:101E800002D0534002AA137002AB1A780223012138
:101E90001343202002AA1370FFF752FE11230206FB
:101EA0001AD4ADB23A0029003020FFF749FE1223C0
:101EB000020611D4314E3378002B10D03A0029009D
:101EC0002A20FFF73DFE0200030608D52C4B2D49C2
:101ED0001B682D4898471323180005B0F0BD2B4D03
:101EE00001202B6898473378A020002B00D11030B8
:101EF0006B460A9A9988FFF723FE0700030607D46A
:101F00001027092C17D82B68002098470523E3E7F2
:101F10001B4C317823681E4A002900D11D4A1949FB
:101F20001D489847236839001C4898472B680020B3
:101F300098472023D0E703AE320001211720FFF796
:101F40001DFE0200030609D50D4B0E491B681448FF
:101F500098472B68002098472123BDE733783B4200
:101F600006D1104B0A201B680A3C9847A4B2C8E768
:101F70002B68002098470023AEE7C046B40200203B
:101F80000000002001410008E5410008BC020020DB
:101F9000BD410008CE41000805420008FD4100088F
:101FA00012420008B802002013B501AC2200012142
:101FB0000020FFF7E3FD1023020614D422780E3B25
:101FC0001A4201D053402370220001212020FFF744
:101FD000B7FD00230200010605D5044B04491B6828
:101FE000044898471123180016BDC0460000002081
:101FF0000E4100086741000813B50F4B00201B6815
:1020000001AC9847220001210020FFF7B7FD102204
:1020100003060ED4012322781A4201D053402370C4
:10202000220001212020FFF78BFD112243B2DB1794
:102030001A40100016BDC046BC020020F0B50027B3
:1020400087B004ABDC1D0190039102922770FF253D
:102050001F283BD805AE320001213800FFF78EFD66
:10206000207040B2EF3DB84230DB032233780121CB
:102070001343202032003370FFF762FD207040B21E
:102080000135B84222DB6B461B7932000121322038
:102090003370FFF755FD207040B20135B84215DBB3
:1020A000314B01201B689847029B04AA1F70012135
:1020B0001720FFF763FD43B202002070BB4208DA2D
:1020C0002A4B2B491B682B4898470F3D280007B027
:1020D000F0BD012604AB1B783D003342F6D1029AD5
:1020E00031006020FFF74AFD43B202002070002B50
:1020F00006DA1E4B1E491B681F4898470425E5E772
:102100006B46039A99886120FFF738FD43B20200BD
:102110002070002B06DA154B15491B6816489847A6
:102120000525D3E73A003900E220FFF709FD2278C0
:1021300053B2002B06DA0D4B0D491B680F48984728
:102140000625C3E7220031000720FFF717FD4023D3
:1021500021782200194201D04B4023700121272011
:10216000FFF7EEFC0025B1E7BC02002000000020D4
:102170001F410008124200087F410008A0410008EA
:102180007047000010B5024B1B68984710BDC04651
:10219000040000200023F0B51A00050087B000916C
:1021A00003AE9A5501330B2BFBD1002428000A21E2
:1021B000FEF744F82800CBB20A210193FDF7B8FFDF
:1021C0000199631C30310500DFB23155002803D07E
:1021D0001C000B2BEAD11F00009B00249F4211D34F
:1021E00000243319987A002801D0FFF7CBFF013C77
:1021F00023000B33F5D107B0F0BD3020FFF7C2FF4D
:102200000134E4B2009BDB1B9C42F6DBE8E7F0B54F
:10221000070085B00D001600002905D11100280027
:10222000FFF7B8FF05B0F0BD01AC09220021200086
:1022300001F038FA6122002F00D0412200210F2046
:10224000D2B20A3A2B000340092B1AD83033635418
:102250004B1C2D09DFB2072901D1082702E0190024
:10226000002DEFD10025BE4212D86B46E419DD1CCB
:102270002078002801D0FFF785FF013CAC42F7D160
:10228000D0E79B18E3E73020FFF77CFF0135EDB284
:10229000F31B9D42F7DBE8E7F8B507000D001600D9
:1022A0000024002905D13F20FFF76CFFF8BDB442A0
:1022B000FCD22978022238000134FFF7A8FFA4B22B
:1022C0000135002EF3D12B78002BEFD0014B9C422F
:1022D000EFD9EBE7FF0F0000074B1A78002AFCD17B
:1022E00001321A70054A002803D0106000221A70CB
:1022F000704703491160F9E7C8020020040000207C
:10230000812100080FB4F0B589B00E9D7E4B7F4A45
:102310001178002902D0013B002BF9D101230024C0
:1023200013700FAA059201932B78002B06D1774AE0
:10233000137009B0F0BC08BC04B01847252B13D1AA
:102340006B78303BDAB2092A12D96B1C0093009BE0
:102350001B78662B6DD026D8582B63D010D8482B0D
:1023600000D1CAE0009D013D2878FFF70BFF41E056
:102370000A245C43AB78303BE418E4B2EB1CE5E79D
:10238000632B43D0642BEDD1059B1D681A1D05926C
:10239000002D03DA2D20FFF7F5FE6D422100280005
:1023A000FFF7F8FE25E0732B18D00AD8682BD9D197
:1023B0000020059B1A1D19680592A2B2FFF76CFF59
:1023C00017E0752B28D0782BCCD1059B00201A1D47
:1023D000059222001968FFF71AFF0AE0059B1D68A5
:1023E0001A1D0592002D07D0494BEE1828780028B9
:1023F00006D1009D013597E73F20FFF7C3FEF8E7C0
:10240000FFF7C0FEB542F4D00135EFE7059B186831
:102410001A1D0592C0B2F0E7059B21001A1D059216
:102420001868BDE7059B01981A1D059219682200DE
:10243000D1E70722059B073393431A001E685F68A4
:102440000832390030000592FEF7BCFE0500FEF7A9
:10245000EDFE02000B0030003900FEF79DFB060088
:102460000F00002D03DA2D20FFF78CFE6D422800AF
:1024700000250021FFF78EFE2E20FFF783FE019B33
:1024800003930022234B30003900FEF705F90F00BB
:102490000600FEF797FE0290FEF7C8FE02000B0052
:1024A00030003900FEF778FB0022002306000F0001
:1024B000FDF7C4FF00280ED0002D0CD00025082207
:1024C00004AB9B18585DFFF75DFE0135039AEBB234
:1024D0009A42F4D88DE70A210298FDF799FF6B1C08
:1024E000002901D0DAB20392082004AA3031121870
:1024F00051551D00062BC4D1E0E7059B01981A1D1C
:1025000005921968A2B259E741420F00C8020020A3
:10251000FF0F000000002440837930B50168002BD4
:1025200024D0CD43144B1C682C401C605A682A40B0
:102530005A600279D21814682143116002689C68BD
:10254000D5432C409C60D9682940D9604179102935
:1025500006D1996811439960D9680A43DA6030BDA1
:10256000054BCB1819680A431A60F8E7024A037949
:102570009B181A688A43F7E700040140034B5B6924
:102580001840431E9841C0B27047C0460004014045
:10259000014B58617047C04600040140054B1022B2
:1025A0001968002802D00A431A60704791431960E5
:1025B000FBE7C04600200240044B1A69120603D50F
:1025C000034A5A60034A5A607047C04600200240DE
:1025D00023016745AB89EFCD8023024A11690B4384
:1025E0001361704700200240014BD8607047C0461D
:1025F000002002400120074BDA68024209D1DA6864
:102600000018D20605D4D868042318404342584124
:10261000033070470020024010B50400FFF7EAFFC6
:10262000012807D1002C01D1043010BDFFF7E2FFD3
:10263000013CF5E7002CF8D10520F6E770B506005F
:10264000B0200003FFF7E8FF042810D10225084C52
:10265000B020236900032B43236140236661226974
:1026600013432361FFF7D8FF2369AB43236170BD98
:1026700000200240F7B50600B020002300030D0043
:102680000193FFF7C9FF042818D10127B0200C4C93
:10269000000323693B432361ABB23380FFF7BCFFE8
:1026A000042808D1B02002360196019B2D0C1D8014
:1026B0000003FFF7B1FF2369BB432361FEBDC046A2
:1026C00000200240F7B50B680193002301259D40CF
:1026D000019A2A4095422DD10A79541E012C16D810
:1026E00084685F0026000324BC40A643866084689B
:1026F000A4464C79BC4067463C4384608488AC4324
:1027000084808D7984889D402C43A4B284800324E6
:102710005D00AC40E443AA400768274007600768B3
:102720003A430260C2681440C460CA79C468AA40CF
:102730002243C2600133102BC8D1F7BD044B0122E4
:1027400003600023427103718371C3717047C046F7
:10275000FFFF0000008A0840411E8841C0B2704758
:10276000002A01D0816170470185FCE7072310B57D
:102770000F240B409B009C409A40C90889004018D8
:10278000016AA1430162016A0A43026210BD0000AE
:102790008378F0B50278002B1BD0FF2703243E007E
:1027A000C0251440E400A64091080D4B8900C918CB
:1027B000AD004B59B3431E0043789B013B40A340FF
:1027C00033434B511F231A401E3B9340044A13606E
:1027D000F0BD1F231A401E3B9340024AD367F7E720
:1027E00000E100E004E100E0044B5A68002902D057
:1027F00010435860704782435A60FBE70070004006
:102800000022024B1A7018707047C0460210024036
:10281000054B01221968002802D00A431A6070474C
:1028200091431960FBE7C04600100240064B0028A8
:1028300005D08022196852040A431A6070471A684A
:1028400002490A40F9E7C04600100240FFFFFFFEC0
:102850000321034A53688B43184350607047C046B6
:1028600000100240F8B504000C20584D6B6803407E
:102870001800FDF749FC07555555555555553A551E
:1028800055555100524A226020686A680100514E35
:102890001206120FB25CD1400A00616069684905F6
:1028A000490F715CCA40A260296BC9053AD44A49F4
:1028B000E160296B49063CD448492161296BC9066E
:1028C0003AD44349616103212E6B0E4236D1A26195
:1028D000C0212E6B89020E4244D1E261C0212E6BD1
:1028E00009030E4256D122625BE00F226B686968D1
:1028F0009B0C13409E1CC0235B02194203D1384B32
:1029000073432360C0E7E96A314811400131FDF7A4
:102910000FFC33004343F4E7324B23600023B3E75B
:102920002B4BFAE76968490401D45108C0E79108C4
:10293000BEE780210902C0E76061C4E72E6B0E404C
:10294000012E01D1A061C3E72E6B0E40022E03D1F0
:1029500080210902A161BBE72E6B31400329B7D169
:102960001B49F7E780272E6B7F020E40BE4201D144
:10297000E061B3E780272E6BBF020E40BE4203D159
:1029800080210902E161A9E72E6B0E408E42A5D19C
:102990000F49F7E780262A6BF6020A40B24206D1B9
:1029A00020622A6B120600D40E4B6362F8BD8020B1
:1029B0002A6B00030A40824202D18022120292E76F
:1029C0002A6B0A408A42ECD1014A8CE7001002408F
:1029D00000127A0008000020809FD50012800000BD
:1029E00000093D00006CDC02044B5A69002902D04A
:1029F00010435861704782435A61FBE70010024060
:102A0000044B9A69002902D01043986170478243B1
:102A10009A61FBE700100240044BDA69002902D0FA
:102A20001043D86170478243DA61FBE7001002402F
:102A3000044BDA68002902D01043D8607047824303
:102A4000DA60FBE700100240044B1A69002902D04B
:102A500010431861704782431A61FBE7001002407F
:102A6000C12302889B0110B51A40CC890B882343EF
:102A7000CC8823430C8923434C8923438C892343EB
:102A8000134303808388094A13408A88134304222E
:102A900083800B8A0382038893434A88134303800D
:102AA000838B034A1340838310BDC046FFF0FFFFB2
:102AB000FFF7FFFF40230288002902D01343038061
:102AC00070479A430280FBE78388034A1340838060
:102AD0008388194381807047FFEFFFFF01737047C0
:102AE000007BC0B270470000002905D08023028817
:102AF0009B011343038070470388014A1340F9E7A1
:102B0000FFDFFFFF00890840411E8841C0B27047C7
:102B1000032310B50F240B409B009C409840054AAE
:102B20008908890089188A68A2438A608A681043E4
:102B3000886010BD0000014030B50388154C9BB281
:102B4000A04206D08022D205904202D0124A904282
:102B500003D1702293434A881343104A904203D012
:102B60000F4A0D8913402B4303804B68C3620B88C7
:102B70000385A04208D00B4B984205D00A4B9842DF
:102B800002D00A4B984201D18B7A038601238382BB
:102B900030BDC046002C0140000400400010004041
:102BA000FFFCFFFF0040014000440140004801409D
:102BB00001235B42436000230380038143808372CF
:102BC000704741627047406A7047012302880029BC
:102BD00002D01343038070479A430280FBE7028AC6
:102BE000838900209BB2114203D01940481E8141C5
:102BF000C8B27047C94389B2018270478389002AED
:102C000002D01943818170478B438381FBE710B564
:102C1000FFF7F4FF10BD00002F4B10B598420AD10A
:102C200080200121C001FFF703FF80200021C001A7
:102C3000FFF7FEFE0CE0294B98420AD180200121CB
:102C40008002FFF701FF802000218002FFF7FCFED9
:102C500010BD234B984208D180200121C002FFF70C
:102C6000F3FE80200021C002F0E71E4B984208D1FD
:102C7000802001210003FFF7E7FE802000210003F0
:102C8000E4E7194B984208D1802001214003FFF767
:102C9000DBFE802000214003D8E7144B984206D188
:102CA00001212020FFF7C4FE00212020C0E7104BA7
:102CB000984206D101214020FFF7BAFE00214020B2
:102CC000B6E70C4B9842C3D101218020FFF7B0FE3C
:102CD00000218020ACE7C04600380140004400409D
:102CE00000480040004C00400050004000140140EB
:102CF00000180140001C01400122F0B50D000368DE
:102D00008BB0934303604368224A040013408A68EF
:102D1000134343600368204A1A404B68C9680B4359
:102D200029690B431343036083681C4A13406A6993
:102D3000134383606846FFF795FD194B069E9C423E
:102D400008D0184B079E9C4204D0174B089E9C420B
:102D500000D0029E23682F681B0400D5760039003E
:102D60003000FDF7E5F9390005003000FDF766FA9F
:102D700000237F08B9425B41ED1823681B0404D58A
:102D80000A4B2A07520F1D401543ADB2A5810BB067
:102D9000F0BDC046FFCFFFFFF3E9FFFFFFFCFFFFE1
:102DA000003801400044004000480040F0FF0000AF
:102DB00001230268002902D01343036070479A433D
:102DC0000260FBE7C905C90D01857047808CC0050D
:102DD000C00D7047012310B58CB2C9B2240A8B40D4
:102DE000022C06D10430002A07D002681343036086
:102DF00010BD032CF7D10830F5E702689A43026052
:102E0000F6E7C0690840411E8841C0B270470123FF
:102E1000090C8B40036270471FB51C0023230190EF
:102E2000029103922370042201A9601C00F031FC7E
:102E300040230222637102A9A01D00F02AFC242372
:102E400020000A21237202226944093000F021FC8B
:102E50002000042203A90B3000F01BFC21002300FA
:102E600000220F311878013342408B42FAD12A23D5
:102E70002274E3731FBD000010B50400227808001F
:102E80000123232A1BD16278DB18412A17D1E118CC
:102E90001A0000F0FEFB23000022211D18780133E8
:102EA00042408B42FAD1217903232A2907D1617943
:102EB00000238A4203D00348FFF724FA04231800B2
:102EC00010BDC0463242000810B504002278080048
:102ED0000123232A21D16278DB18552A1DD1A2783B
:102EE000492A1AD1E278442A17D11A00211D00F08C
:102EF000D0FB23000022A11D1878013342408B42F1
:102F0000FAD1A17903232A2907D1E17900238A4242
:102F100003D00348FFF7F6F90423180010BDC0469C
:102F200032420008BFF34F8F024A034BDA60BFF30F
:102F30004F8FFEE70400FA0500ED00E010B5002118
:102F400004000320FEF71EFD0320FEF709FDA0424A
:102F5000FAD310BD01384242424110B5D2B2072126
:102F60000120FEF7DBFA10BD01384242424110B5A4
:102F7000D2B206210120FEF7D1FA10BD10B5010032
:102F80000120FEF74BFC10BD10B501000120FEF73B
:102F900091FD10BDF0B585B069460225184B01AC16
:102FA0001B680422881D0093657000F072FB0323E8
:102FB0000126E37100232570267263720835300004
:102FC000FEF725FC6168A2682068FEF70BFE07008B
:102FD0003000FEF715FC3A000A490B48FFF792F95A
:102FE000002F04D10122094B1A7005B0F0BDFA2060
:102FF000013D4000EDB2FFF7A1FF002DDFD1F4E766
:10300000CC02002069420008CB420008DB0200200D
:10301000F0B591B003AF1B2605007A6008001100DF
:103020001A0000230BAC6E4433702300FFF7F4FE4C
:10303000012002950895FEF7EAFB0094122308AAE6
:1030400004216420FEF706FF041E1AD10A25FE346F
:10305000320009A90720FEF7F1FF3378052B1BD9B1
:1030600007A909A8FFF708FF041E15D16B469A8B24
:10307000BB889A4218D10D490D48FFF743F9FEF776
:10308000BBFF0120FEF7BCFB220008490948FFF7FF
:1030900039F9200011B0F0BD013D0A20ADB2FFF7B3
:1030A0004DFF002DD4D1EAE7FF24E8E742420008B3
:1030B000D8420008CB42000870B50C004508002C2F
:1030C00000D170BD2800FFF739FF01220021052043
:1030D000FEF724FA2800FFF731FF00220520110037
:1030E000013CFEF71BFAA4B2E9E70000F0B58BB093
:1030F00000F01AFA0020FFF783FB0120FFF788FB9E
:103100000020FFF793FB0020FFF7A2FB032207211B
:103110000120FEF76BF9032206210120FEF766F974
:103120000322002105200024FEF760F9012123007D
:10313000080022000094FEF7ABF9230022002100D2
:1031400001200094FEF7A4F92300220007212000AB
:103150000094FEF79DF92300220006212000009430
:10316000FEF796F9802001214005FFF755FC8020ED
:1031700001214000FFF738FB220021000520FEF767
:10318000CDF9E1222300520221000120FEF726FCA6
:103190007248FFF7A1F80223220021000120FEF768
:1031A000BBFA032122000800FEF74EFB2000FEF7C9
:1031B0009DF86B4B6B4A6C496C48FEF701FD07ADFF
:1031C0006B48FFF79FF82A0006216A48FEF7A6F829
:1031D00023002A5DFF2A00D12B550134062CF8D19B
:1031E000280000F01DFA644F644E384330603168A7
:1031F0006348FFF787F83368BB423AD1FFF7CAFE4E
:10320000033402AB0A26E418002302AAB6185D496B
:103210005D48237033800127FFF774F8FA203900E6
:103220008000FFF749FF3800FEF7F1FA220029007D
:103230000920FEF703FF3800FEF7E2FA2278514931
:103240005248FFF75FF82378072BE7D931002800B1
:10325000FFF73AFE0028E1D14D4A0621338805A840
:1032600000F028FA05AA06214248FEF773F8FFF796
:1032700059FE01210800FEF777F900210290012094
:10328000FEF772F9072103900020FEF76DF9210087
:1032900007000020FEF768F9029B3E4C5A1E93413E
:1032A000039A511E8A4152001A433B00591E8B411A
:1032B0009B001A430300591E8B41DB00134323700C
:1032C000039A019300903B0002993348FFF71AF8E4
:1032D0002378002B32D032682B7207922F4A126863
:1032E000AA801122EA80FFF755FE2D4B1B78002B98
:1032F00019D0032629686A68AB682A48FFF788FE58
:10330000002808D101212D30FF30FFF7D5FE012222
:10331000254B1A600BE0013EF6B2002EEAD1962052
:1033200002214000F1E70421FA20FFF7C5FEFA2050
:1033300001214000FFF7C0FE002323701B48FEF769
:10334000E1FF0120FEF763FAFEF72EFE0120FEF7F3
:1033500057FAFA204000FFF7F1FD88E7892F0008AF
:103360007D2F0008552F0008692F00083D2F000809
:1033700078420008007C000800002B1ACC020020D4
:1033800081420008504200088B4200089742000822
:10339000BB420008D9020020A6420008DC0200203F
:1033A000DB0200204D3C2B1A18000020BE42000812
:1033B00001213F4A70B513680800013313603D4A8C
:1033C0000224136801331360FEF7CEF800210500D4
:1033D0000120FEF7C9F8002802D16C1EA541ECB20D
:1033E00007210020FEF7C0F8002800D003240621A2
:1033F0000020FEF7B9F8002800D0042400210800BE
:10340000FEF7B2F82C4900281ED0002C0ED02B4B12
:103410001A78A24208D02A4A1C701470012C15D1C7
:10342000284A13780133137000230B600B681D2B9F
:103430003AD90022214B1A70234B1A68002A02D075
:103440001A6801321A6070BD0524E0E71F4B022C98
:1034500003D11A7801321A70E6E71A480278022A74
:1034600004D11A78042A09D1FFF75CFD012A11D191
:103470001C78032C0BD1164C227008E0022A06D1CE
:10348000134C2578012DF7D00024114A1470002226
:103490000270E0E7032AFAD11C78012CF7D10C4C1A
:1034A0002578022DF0D1E7E70B6801330B60C3E705
:1034B000D4020020DC0200201C000020DA020020E0
:1034C000D9020020D002002018000020D1020020E4
:1034D000D80200200D488546002103E00C4B5B58C4
:1034E000435004310B480C4B42189A42F6D30B4A16
:1034F00002E0002313600432094B9A42F9D300F032
:1035000013F800F093F8FFF7F1FDFEE7001000203C
:103510003044000800000020F0010020F0010020ED
:10352000F0020020FEE7000013B50121344B3548BE
:103530001A680A431A605A6802405A601A68324888
:1035400002401A601A68314802401A605A683048CE
:1035500002400F205A60DA6A8243DA621A6B2D4801
:1035600002401A635A6B80208A435A6300229A6091
:10357000009201928022196852020A431A60800266
:10358000A0220400D2011968014001910099013183
:1035900000910199002902D100999142F3D11A6852
:1035A000224000D001220192019A012A26D1112144
:1035B000194A11605A6819495A605A685A605A681B
:1035C0000A405A608022596852020A435A60802297
:1035D000196852040A431A60802292041968114241
:1035E000FCD003215A688A435A60022259680A4370
:1035F0000C215A605A680A40082AFBD113BDC04604
:10360000001002400CB8FF08FFFFF6FEFFFFFBFFB3
:10361000FFFFC0FFACFEFFFF00200240FF7FC0FFA6
:1036200010B50A22002100F0FDF810BD70B500268B
:103630000C4D0D4C641BA410A64209D1002600F0CD
:103640002DFD0A4D0A4C641BA410A64205D170BD85
:10365000B300EB5898470136EEE7B300EB589847B4
:103660000136F2E7284400082844000828440008EE
:103670002C44000830B50024A24201D1002005E00E
:10368000035D651C0C5DA34201D0181B30BD2C00EE
:10369000F2E7002310B59A4200D110BDCC5CC454AF
:1036A0000133F8E703008218934200D17047197084
:1036B0000133F9E70CB430B5164B9DB00C1E1D68F4
:1036C00008DA8B2301202B6040421DB030BC08BCBF
:1036D00002B01847822302A99B008B81002302902D
:1036E00008619C4200D0631E8B604B6101235B42EA
:1036F000CB81209A21AB2800019300F07DF9431C77
:1037000001DA8B232B60002CDFD00023029A137088
:10371000DBE7C04620000020F0B51F000E0087B098
:103720000590039102920C98347800F08FF80822EB
:1037300000194378751C13400CD12D2C0CD101338A
:103740002C780193B51C002F0CD0102F14D1302CE5
:103750000AD011E02E00E6E701932B2CF3D12C7850
:10376000B51CF0E7302C2FD120222B789343582B17
:1037700051D110276C780235019B294A39009E18D7
:103780003000FCF75BFD300004913900FCF7D0FC01
:1037900001210023494202008C46180021003039E3
:1037A000092913D80C00A7421CDD591C09D0634617
:1037B000824206D302D10499A14202DB012378435D
:1037C00020182C780135E9E70A27D5E7210041398F
:1037D000192901D8373CE6E721006139192901D8B8
:1037E000573CE0E75A1C08D1059A23331360029B2B
:1037F0003000002B0BD107B0F0BD019A002A00D099
:103800004042029A002AF6D0039A002B00D06A1E8A
:10381000029B1A60EFE73024002FADD10837ABE7E9
:10382000FFFFFF7F37B51300064A05001068046AE2
:10383000002C00D1044C0A0000942900FFF76CFF13
:103840003EBDC0462000002084000020EC3000680F
:10385000704782B0002900D101A9101E06D0002BAC
:1038600006D013780B601078431E984102B0704761
:1038700002204042FAE70000032370B5CD1C9D43AF
:10388000083506000C2D1ED20C25A9421DD830008B
:1038900000F079FB254A14682100002919D1244C35
:1038A0002368002B03D1300000F032FB2060290098
:1038B000300000F02DFB431C2CD10C233000336072
:1038C00000F062FB03E0002DDFDA0C233360002000
:1038D00070BD0B685B1B1AD40B2B03D90B60CC1883
:1038E000256003E08C420ED163681360300000F065
:1038F0004BFB200007220B30231D9043C31AE7D057
:103900005A42E250E4E74B6863600C00EEE70C00BB
:103910004968C2E70323C41C9C43A042E0D0211A9B
:10392000300000F0F5FA431CDAD1C6E7E0020020CF
:10393000E4020020F0B58E6885B007000C00039209
:1039400001939E4239D890238A89DB001A4234D0F1
:103950000325096923685B1A0293636902985D4332
:10396000EB0F5D19019B6D1001331B18AB4200D9A1
:103970001D00530532D529003800FFF77DFF061ED4
:1039800009D10C233B6040230120A289404213430C
:10399000A38105B0F0BD029A2169FFF77AFEA389E1
:1039A000144A1A4080231343A381029B2661F61810
:1039B00026606561019EED1AA560019BB34200D2AD
:1039C0001E0032000399206800F0CBFAA3680020A3
:1039D0009B1BA36023689E192660DAE72A00380043
:1039E00000F01EFB061EE0D12169380000F0CEFA7F
:1039F000C7E7C0467FFBFFFFF0B59FB0029005937D
:103A00008B890F0016001B0611D50B69002B0ED1F8
:103A10004021FFF731FF38603861002805D10C23C1
:103A2000029A013813601FB0F0BD40237B61002370
:103A300006AD6B6120336B761033AB7634002378A0
:103A4000002B47D1A31B04930DD0A31B32003900D8
:103A50000298FFF76FFF431C00D1B5E06A69049B31
:103A6000944663446B612378002B00D1ACE00122C3
:103A7000002352426A6002A95432521801342B606A
:103A8000EB60AB601370AB65584E052221783000B7
:103A900000F05CFA621C002820D12968CB0604D50E
:103AA000532302AE20309B1918700B0704D5532303
:103AB0002B2002AE9B19187023782A2B16D00020D9
:103AC0000A21099B2278303A092A55D9002815D0B5
:103AD000099313E0252BB5D00134B0E70123801BF7
:103AE0008340296814000B432B60CDE7059B181D0C
:103AF0001B680590002B39DB0993140023782E2BCB
:103B00000BD16378621C2A2B3ED1059B02341A1D0F
:103B10001B680592002B34DB0793354E2178032276
:103B2000300000F013FA002806D04023801B8340A9
:103B30002A68013413432B60217806222D48661C25
:103B4000297600F003FA002846D02B4B002B2FD10A
:103B50002968059B0722C90528D59B18934308337C
:103B600005936B69039A9B186B6167E75B42EB6097
:103B700002230B432B60C0E74B4301349B18012009
:103B8000A0E701235B42C7E7002314000A201A00C4
:103B90006B6021783039092903D9002BBDD00792F9
:103BA000BBE74243013452180123F2E70733D5E75C
:103BB00005AB00933A00114B2900029800E000BFCA
:103BC0000390039B0133CCD1BB890B985B0600D4D7
:103BD00029E70120404226E705AB00933A00074B56
:103BE0002900029800F07AF8EAE7C046F24200089D
:103BF000F8420008FC4200080000000035390008C7
:103C0000F7B5150001938A680B6900900C00934288
:103C100000DA130022002B6043321278002A01D010
:103C200001332B6023689B0602D52B6802332B607F
:103C3000062723681F4027D0230043331B785A1ED2
:103C400093412268920630D42200019943320098B1
:103C5000089EB047431C25D0062320682A68E168E7
:103C600003400025042B03D18D1AEB43DB171D40C5
:103C7000A3682269934201DD9B1AED180027BD421B
:103C800020D1002010E00137E3682A689B1A9F4288
:103C9000D2DA22000123193201990098089EB04718
:103CA000431CF0D101204042FEBD3020E1184331D9
:103CB000087021005A1C45310978A218433202339A
:103CC0001170C1E7220001231A3201990098089E61
:103CD000B047431CE6D00137D1E70000F0B58BB008
:103CE00006920A0043320793059004920A7E0C0064
:103CF000109B6E2A00D18FE017D8632A2CD008D8E9
:103D0000002A00D199E0582A54D026004236327059
:103D100029E0642A01D0692AF7D121681A680806C7
:103D200023D5111D1960156825E0732A00D188E09C
:103D300008D86F2A29D0702AE7D1202209680A43BF
:103D4000226003E0752A20D0782ADED12200782173
:103D5000453211706C4A30E00E001A684236111D6F
:103D6000196013683370012379E04906D9D5111D14
:103D700019600023D55E002D03DA2D23049A6D42CD
:103D80001370624B0A2703932FE020681968050619
:103D900003D5081D18600D6805E04006F9D50D68CB
:103DA000081D1860ADB2594B082703936F2A18D02D
:103DB0000A2716E045310A70544A03921A682168AE
:103DC000101D18601568080622D5CB0702D52023E0
:103DD000194321601027002D03D1202322689A4324
:103DE00022602300002243331A706368A360002B13
:103DF0005CDB0422216891432160002D58D1049E90
:103E0000002B64D02600039B42361B7833705EE0A3
:103E10004806DAD5ADB2D8E709681A68080605D5AC
:103E2000111D1960136862691A6006E04906F7D52A
:103E3000111D19601368A28A1A800023049E236151
:103E400054E01A68111D196016680021626830007C
:103E500000F07CF8002801D0801B6060636823615B
:103E60000023049A137041E02369320006990598F3
:103E7000079DA847431C43D0236800259B070FD408
:103E8000099BE06898423DDA18003BE022000123DC
:103E9000193206990598079EB047431C30D001356A
:103EA000E368099A9B1A9D42F0DBE9E7002DA9D04F
:103EB000049E28003900FCF7C1F9039B013E5B5CBE
:103EC000280033703900FCF733F9051EF1D1082FB3
:103ED00009D12368DB0706D563682269934202DCB7
:103EE0003023013E3370049B9B1B2361079B09AA6F
:103EF00000932100069B0598FFF782FE431CB3D177
:103F0000012040420BB0F0BD1443000803430008F9
:103F1000002370B5064C05000800236000F0AEF8E1
:103F2000431C03D12368002B00D02B6070BDC0461A
:103F3000EC0200200B1E04D0FF2A04D98A23036060
:103F40008B3B180070470A700123FAE7C9B2821848
:103F5000904201D10020704703788B42FBD00130A2
:103F6000F6E710B5884202D98B18984208D300238F
:103F70009A4207D0CC5CC4540133F9E78B5C83547C
:103F8000013AFBD210BD70477047000070B50500C4
:103F9000002910D00C1F2368002B00DAE418280039
:103FA000FFF7F1FF1D4A1368002B05D16360146011
:103FB0002800FFF7E9FF70BDA34209D92168601806
:103FC0008342F3D118685B6841182160EEE7130063
:103FD0005A68002A01D0A242F9D919685818A0429B
:103FE0000BD120680918581819608242E0D1106876
:103FF0005268411819605A60DAE7A04202D90C23CE
:104000002B60D5E721686018824203D1106852689E
:104010004118216062605C60CAE7C046E00200208F
:10402000F8B507000D001600002905D11100FFF7B3
:1040300023FC04002000F8BD002A03D1FFF7A6FFEF
:104040003400F7E700F012F82C008642F2D9310074
:104050003800FFF711FC041EECD029003200FFF7F6
:1040600018FB29003800FFF791FFE3E70B1F1B68DF
:10407000181F002B01DA0B58C0187047054B0200BF
:104080001968002901D104491960186882181A605A
:104090007047C046E8020020F0020020F8B5C04694
:1040A000F8BC08BC9E467047F8B5C046F8BC08BCD2
:0440B0009E46704771
:1040B4008808000848070008480700084407000863
:1040C4006008000860080008520800084407000857
:1040D4006008000852080008600800084407000847
:1040E4006808000868080008680800086C0A0008E6
:1040F4006E524632344C30315F696E69006E5246FE
:1041040032344C30315F736E64006E524632344C3C
:1041140030315F707772446F776E006E524632347E
:104124004C30315F72656376002025303258000DC3
:104134000A2025733A5265673D25582072446174FC
:104144003D000D0A2025733A737465703D25750092
:104154000D0A2025733A5265673D2558207744613E
:10416400743D000D0A2025733A57727420434F4E54
:104174004649473A7374743D2558000D0A20257347
:104184003A526420434D445F525F52585F50415944
:104194004C4F41443A7374743D2558000D0A202550
:1041A400733A526420434D445F464C5553485F5222
:1041B400583A7374743D255800434D445F575F5417
:1041C400585F5041594C4F414400434D445F575F41
:1041D40054585F5041594C4F41445F4E4F41434BFB
:1041E400000D0A2025733A577274205245475F52D6
:1041F400585F414444525F50303A7374743D2558BB
:10420400000D0A2025733A577274202573000D0A95
:104214002025733A5264205245475F4649464F5F12
:104224005354415455533A7374743D2558000D0A40
:104234002043686B73756D3A25582F2558007472A6
:10424400616E736D69745F64617461007363616E40
:104254005F73657452656D6F74655549445F706131
:10426400636B65740073657475705F52466D6F643B
:10427400756C65000D0A205374617274000D0A2078
:104284005549443A2558000D0A2025733A53746160
:104294007274000D0A2025733A52586C656E3D25E0
:1042A40075000D0A204B45593A25752025752025A2
:1042B40075202575203D202575000D0A20506F7747
:1042C4006572446F776E000D0A2025733A72657328
:1042D4003D2575000D0A2025733A41434B706173E7
:1042E400736564004300504F534958002E00232D3A
:1042F400302B2000686C4C006566674546470030EB
:104304003132333435363738394142434445460037
:104314003031323334353637383961626364656637
:1043240000002020202020202020202828282828A1
:104334002020202020202020202020202020202079
:1043440020208810101010101010101010101010D1
:1043540010100404040404040404040410101010D1
:10436400101010414141414141010101010101018C
:1043740001010101010101010101010101101010FC
:10438400101010424242424242020202020202025F
:1043940002020202020202020202020202101010CF
:1043A40010200000000000000000000000000000D9
:1043B40000000000000000000000000000000000F9
:1043C40000000000000000000000000000000000E9
:1043D40000000000000000000000000000000000D9
:1043E40000000000000000000000000000000000C9
:1043F40000000000000000000000000000000000B9
:1044040000000000000000000000000000000000A8
:104414000000000000000000000000000000000098
:044424000000000094
:04442800E90000089F
:04442C00C1000008C3
:10443000391B00088121000800000000010203046C
:104440000102030406070809010000000100000042
:104450002400002000000000000000000000000018
:10446000000000000000000000000000000000004C
:10447000000000000000000000000000000000003C
:10448000000000000000000000000000000000002C
:10449000000000000000000000000000000000001C
:1044A000000000000000000000000000000000000C
:1044B00000000000430000000000000000000000B9
:1044C00000000000000000000000000000000000EC
:1044D0000000000043000000000000000000000099
:1044E00000000000000000000000000000000000CC
:1044F0000000000043000000000000000000000079
:1045000000000000000000000000000000000000AB
:104510000000000043000000000000000000000058
:10452000000000000000000000000000000000008B
:104530000000000043000000000000000000000038
:10454000000000000000000000000000000000006B
:104550000000000043000000000000000000000018
:10456000000000000000000000000000000000004B
:1045700000000000430000000000000000000000F8
:10458000000000000000000000000000000000002B
:1045900000000000353F000853380008000000000C
:1045A00025430008F0420008F7420008F7420008DF
:1045B000F7420008F7420008F7420008F7420008F7
:1045C000F7420008F7420008F7420008FFFFFFFF2C
:1045D000FFFFFFFFFFFFFFFFFFFF00000100415350
:1045E00043494900000000000000000000000000F6
:1045F0000000000000000000000000000000415327
:1046000043494900000000000000000000000000D5
:10461000000000000000000000000000000000009A
:04000005080034D5E6
:00000001FF
