:020000040800F2
:1000000000100020DD2A00082D2B00082D2B0008F1
:1000100000000000000000000000000000000000E0
:100020000000000000000000000000002D2B000870
:1000300000000000000000002D2B000859290008D6
:100040002D2B0008000000002D2B00082D2B000890
:100050002D2B00082D2B00082D2B00082D2B000820
:10006000000000002D2B00082D2B00082D2B000870
:100070002D2B00082D2B00082D2B00080000000060
:100080005515000800000000000000002D2B00089E
:10009000000000002D2B00082D2B00082D2B000840
:1000A000000000002D2B000800000000891500084A
:1000B0000000000000000000000000000000000040
:1000C00010B5064C2378002B07D1054B002B02D02E
:1000D000044800E000BF0123237010BD840000200D
:1000E0000000000088360008044B10B5002B03D038
:1000F0000349044800E000BF10BDC04600000000F6
:10010000880000208836000802B47146490849007A
:10011000095C49008E4402BC7047C0460022430877
:100120008B4274D303098B425FD3030A8B4244D3BF
:10013000030B8B4228D3030C8B420DD3FF22090201
:1001400012BA030C8B4202D31212090265D0030BC0
:100150008B4219D300E0090AC30B8B4201D3CB03B6
:10016000C01A5241830B8B4201D38B03C01A5241F8
:10017000430B8B4201D34B03C01A5241030B8B42FA
:1001800001D30B03C01A5241C30A8B4201D3CB02E5
:10019000C01A5241830A8B4201D38B02C01A5241CA
:1001A000430A8B4201D34B02C01A5241030A8B42CD
:1001B00001D30B02C01A5241CDD2C3098B4201D3E5
:1001C000CB01C01A524183098B4201D38B01C01A63
:1001D000524143098B4201D34B01C01A52410309DA
:1001E0008B4201D30B01C01A5241C3088B4201D389
:1001F000CB00C01A524183088B4201D38B00C01A36
:10020000524143088B4201D34B00C01A5241411A5C
:1002100000D20146524110467047FFE701B5002069
:1002200000F006F802BDC0460029F7D076E7704717
:100230007047C0468446101C62468C46191C6346B3
:1002400000E0C0461FB500F0D7F8002801D4002117
:10025000C8421FBD10B500F02BF84042013010BD60
:1002600010B500F0C9F8002801DB002010BD012006
:1002700010BDC04610B500F0BFF8002801DD002019
:1002800010BD012010BDC04610B500F051F8002887
:1002900001DC002010BD012010BDC04610B500F0EB
:1002A00047F8002801DA002010BD012010BDC0462B
:1002B000F0B55F4656464D464446F0B41F035C0019
:1002C000DB0F9A46194B0E034D00C90F8046360BC3
:1002D0006D0D8B4691463F0B640D9D4219D0134B1B
:1002E0009C421BD00123A54206D018003CBC90467E
:1002F0009946A246AB46F0BDBE42F6D1C845F4D100
:10030000D34510D0002DF0D1304303005A1E934145
:10031000EBE7310001230143E7D1E0E73A43012352
:10032000002AE2D1DEE70023DFE7C046FF07000036
:10033000F0B55F46444656464D46F0B41F033C0BAD
:100340002C4F0E034D00A3465C008446360B6D0D0A
:10035000C90F9046640DDB0FBD422BD0254FBC4228
:100360002ED0002D0ED130430700814678427841CF
:10037000002C17D15F463A4314D14B460020002B86
:100380000AD006E0002C02D15846024301D099421F
:100390001AD00123484218433CBC90469946A246D5
:1003A000AB46F0BD0028F2D05842584101224042ED
:1003B0001043F1E737000743D0D002204042EBE77B
:1003C0005F461743CDD0F8E7A542E2DC05DB5E458A
:1003D000DFD808D000205E45DED2484248410123E4
:1003E00040421843D8E7C445D3D80020C445F4D3CD
:1003F000D2E7C046FF070000F0B55F464D464446D1
:100400005646F0B41C03240BA4462F4C0F034D009A
:100410005E00C90F80463F0B6D0D8B469146760DF1
:10042000DB0FA54220D0284CA64222D0002D12D1AD
:10043000384344424441002E20D0002C0DD05C4271
:10044000634101245B421C4320003CBC904699461A
:10045000A246AB46F0BD002E17D05B4519D05B46D7
:100460005C4201231C43EFE7390002240143EBD136
:10047000D9E7614602241143E6D1D7E761460A4332
:10048000DBD100240028DFD0E9E761460A43E4D14C
:10049000E5E7B54203DD01225C421443D4E7B542EF
:1004A000CDDB6745DBD809D000246745CCD259465F
:1004B0004C426141012449420C43C5E7C845CED8AE
:1004C0000024C845F3D3BFE7FF070000F0B55F463F
:1004D00056464D464446F0B40D0399464E002B0B4C
:1004E00087B00700924680469B46760DCC0F002EC3
:1004F00069D06D4B9E4235D05B468022DD001204F0
:10050000430F13432B439B46C3009846674B00277A
:100510009C460023664401934A4615035000D20FBF
:1005200053462D0B400D914600D176E05E4A904235
:100530006CD080225B0F120413435C4AED0094469A
:100540001D4353460022DB00604449463618701CA8
:100550006140029017430F2F00D9AFE05448BF000D
:10056000C759BF465B461F4300D088E000239B4627
:100570009846023308270193CEE74946022A6AD0FB
:10058000032A00D109E2012A00D0BBE11140002278
:10059000002300259046CCB200212D030A0D120540
:1005A0002D0B1543434A1B0515401D436D00E40701
:1005B0006D0825434046290007B03CBC904699464B
:1005C000A246AB46F0BD034352D05B46002B00D1A0
:1005D0008AE1584600F0C0FD03000B3B1C2B00DDF8
:1005E0007BE11D22D31A3A0001005D46DA4008394A
:1005F0008D4013008F402B439B46B8462E4B00275F
:100600009C46002360444642019385E752462A43B4
:100610002CD100250023022297E752462A4321D0FD
:10062000002D00D154E1280000F096FD03000B3BA3
:100630001C2B00DD46E11D21CB1A51460200D9409A
:100640005346083A954093400D431B4A94466044F4
:100650004042002279E7012400220C40124B002581
:10066000904699E70025002301226EE703226CE7FC
:1006700000239B4698460133042701934CE703234C
:100680000C27019348E700238025984600242D037A
:10069000054B81E75D464346019A6FE75D46434659
:1006A0002100019A6AE7C046FF07000001FCFFFF36
:1006B000A0360008FFFF0F80F30300004246120C33
:1006C00091461A0C9446424617044A461B041B0CDA
:1006D0005A43604690464A4642431000039262469F
:1006E0001C003F0C7A437C4342440192220C924608
:1006F000019A5244904506D98246802040028046A5
:10070000C24450460390100C049048462404240C24
:100710001204121905922A0C2D042D0C68432C008A
:10072000824648467C4350438146200C80465743CE
:1007300057444744BA4503D9802040028046C1440B
:10074000380C3F04B84648442404240C0190049813
:10075000A044404404905846000C81465846040486
:10076000200C8246070048465F434C4643436046A0
:1007700060436446834650464443380C8446E4183C
:100780006444A34203D980235B029C46E344484669
:100790003F04230C3F0C2404E419574668436F437D
:1007A00084464D46504655434243380C8146624488
:1007B0004A445B44944503D9802040028446654402
:1007C00003983F04834604983F0C8446E344C345A2
:1007D0008041404282461004844601986744844622
:1007E0006744A344BC46A345A4419946D44464420B
:1007F0008742BF41D4458041E144A04699459B4191
:100800007F424042C8440743120CBA18A045A44195
:100810005F423B0064422343D71843467D19DB0DFA
:100820006D021D435B465A02059B1A43531E9A41B3
:100830005B46DB0D1A4343465B021343EA0107D5CF
:1008400001225C0813402343EA07029E13436D080C
:10085000574AB218002A4BDD580709D00F2018401C
:10086000042805D0181D98429B415B42ED180300F7
:10087000E80104D54F4A15408022D200B2184E48F4
:10088000824200DDE7E60124DB08680718436D02B9
:10089000530580462D0B5B0D0C407DE680225946AA
:1008A0001203114208D0154206D115432D03984674
:1008B0002D0B4C46414B6FE65D4615432D032D0B2A
:1008C0003E4B69E603005546283B9D400023BCE6AD
:1008D000504600F041FC2030A8E60300283B9F4032
:1008E0000023BB46984689E600F036FC203073E6CC
:1008F0000124A61A382E07DD00220C400023002513
:10090000904649E6029EA3E71F2E20DC20222C0001
:100910001800921BF040944093400443581E8341BA
:100920001C43F540630709D00F232340042B05D057
:1009300023001C1D9C4292415242AD182B021FD530
:10094000012400220C4001230025904624E61F20AC
:100950002C004042821AD440202E1CD04022961BEC
:10096000B5402B43581E83410720234318400025E0
:10097000002809D00F2200251A401C00042AD8D1D3
:10098000230068076D022D0B0124DB080343984602
:100990000C40002300E60025E3E780220124120337
:1009A00015432D0398462D0B0C40044BF4E5C0462F
:1009B000FF030000FFFFFFFEFE070000FF0700002F
:1009C000F0B557464E464546E0B40E001100F20F12
:1009D0009246C500420F180337037400400A4E0FB9
:1009E0007F0A3043CF4E17435A00640D520DDB0F80
:1009F000C900B24200D1E5E001267340A61AB44610
:100A0000534500D1AFE0002E00DC0DE1002A3AD1C1
:100A100003000B4300D0E4E06B0709D00F232B4009
:100A2000042B05D02B1DAB42AD416D427F191D003B
:100A30003B0200D488E0BB4B01349C4200D110E162
:100A40003A00B94B51461A4001235007ED085202B3
:100A500064050543120B640D0B40002128001203AE
:100A60000D0D120B64052D0515436208AF4CDB0715
:100A70002C401443640064081C4321001CBC9046B5
:100A80009946A246F0BDA74B9C42C5D080231B04CB
:100A900018436346382B00DDFDE01F2B00DD30E1FD
:100AA000624620239B1A02009A40664690460A003E
:100AB0009940F24046464B1E9941324311436346EA
:100AC0000200DA40691A8D429B410D00BA1A5B425E
:100AD000D71A3B0235D57A02530A98464346002B73
:100AE00000D1C4E0404600F037FB0300083B1F2B59
:100AF00000DDC5E020222900D21A4746D1409F40A0
:100B00000A009D403A439C4200DDC0E01C1B631C70
:100B10001F2B00DDE4E0202114002800C91AD84072
:100B20008C408D400443DA40681E85411700254300
:100B3000002471E7424663461A4300D14CE26746FF
:100B400045466B0700D069E7012351467807ED0859
:100B5000FA080B40054373498C4238D012036405F0
:100B6000120B640D79E7002E00DC9AE0002A47D0D2
:100B70006C4A944200D14FE780221204104362462F
:100B8000382A00DC08E10143481E81410022C9B235
:100B90004919D219A942BF410D007F42BF183A023C
:100BA00000D442E15F4A0134944200D14EE1012079
:100BB0005D4A69083A4028400843D507054357086D
:100BC0009A4629E706000E4300D017E714E72900EC
:100BD000114300D1F9E1802109030A431203120BEA
:100BE0003BE701235B429846C4446346002B72D125
:100BF000691A8D429B413F1A5B42FF1A0D0068E75C
:100C000002000A4300D107E7012252429046C44441
:100C10006246002A00D0E6E06918A942B6413F18B2
:100C20007642F7190D00BAE7002E00D080E0621C72
:100C30005205520D012A00DCF9E06A1A91464D4531
:100C4000B6413A1A7642921B9046120200D499E0BD
:100C50004D1BA9428941C71B49427A1A90469A46C0
:100C60003CE752460123002513400022F5E6280008
:100C700000F072FA20300300083B1F2B00DC39E73C
:100C80002A002838824000259C4200DC3EE7264F9F
:100C9000E41A1740C0E60143481E81410022C9B250
:100CA00010E7002E00D0F1E0621C94465205520D70
:100CB000012A00DCA0E01B4A944500D1C5E0691878
:100CC000A94292413F185242D2194908D5070D4313
:100CD00057086446A0E6134B9C4200D0D9E69BE639
:100CE00011001F3CE1400C00202B00D180E040218E
:100CF000CB1A9A4015436A1E9541002725430024CC
:100D00001FE763460200203BDA406346202B71D088
:100D1000402366469B1B98400143481E8141114376
:100D20000022CFE6FF070000FFFF7FFFFFFF0F80DD
:100D3000002C48D0CA4CA24200D1A2E07442A14685
:100D40008024240427434C46382C00DDDBE01F2C94
:100D500000DD44E14E462024A41B3E00A640A246EE
:100D6000B0464C462E00E640B4464646644626430E
:100D70005446A5406C1EA54134002C434D46EF401F
:100D80000D1B28E04A4643464D461A4300D0A5E6CF
:100D9000002300240025DEE61F2A5ADC66462022B6
:100DA000921B060096409146B04662460E00D64021
:100DB000424616434A4691404A1E9141020060460F
:100DC0003143C240E4E63C002C435AD0F443A146F0
:100DD000002C52D14D1BA9428941C71B49427F1AA1
:100DE00014009A4675E69E4A944200D0C7E613E680
:100DF00000227FE700208FE7002C00D0C8E03B00F6
:100E00002B4300D10FE103000B4300D104E6691826
:100E1000A9429B413F185B42DF193B0200D41AE113
:100E2000904B0D001F406446F6E59A4689E63A006D
:100E30002A43002C5CD1002A75D102000A4300D15C
:100E4000CAE007000D009A46E6E564460022002548
:100E500081E662460600203AD6406246B046202A25
:100E600000D1B7E040226646921B904001434246C3
:100E7000481E8141114300228AE6794CA24200D0EB
:100E800061E707000D0014009A46C5E5002C41D12A
:100E90003C002C4378D0F443A146002C20D0704C69
:100EA000A24271D04C46382C00DDB2E01F2C00DD90
:100EB000BCE02026341BA2463C005646B4404E46B9
:100EC000A0462C00F440A446444666463443A4465B
:100ED0005446A54064466E1EB54125434C46E74046
:100EE0006D188D4289413F184942CF19140056E6CA
:100EF000002A2FD102000A4300D184E007000D0030
:100F00009A46574C88E53D436F1EBD41ECB2002721
:100F10000D1B60E7524CA24236D074428026360444
:100F2000A1463743BEE702000A4300D174E56A1ABE
:100F300090464545B6413A1A7642921B94461202B3
:100F400000D4F7E54D1BA9428941C71B49427F1ACE
:100F50009A4661E502000A433AD0ED087C072C432B
:100F60008025FA082D032A4208D0C7082F4205D150
:100F700045072C003A009A46C9080C43670FD20077
:100F8000E5001743364C47E507000D00140043E524
:100F90003A002A4343D002000A4319D0ED087C07E7
:100FA0002C438025FA082D032A4207D0C6082E427A
:100FB00004D147073C003200C9080C43D700620F38
:100FC000E50017439A46264C26E50022002544E515
:100FD000234C21E5002049E700230025BBE54C46D2
:100FE0003E00203CE6404C46B446202C31D0402404
:100FF0004E46A61BB7403D436C1EA54164462C439C
:1010000000270D1BE7E6802200231203144C002565
:10101000A1E53D436F1EBD410027EDB260E707002B
:101020000D000F4CF8E407000D00F5E44E463C00BF
:10103000203EF440A0464C46202C0ED040244E4684
:10104000A41BA7403D436F1EBD41444600272543D6
:1010500046E70027CFE70D0073E50027F2E7C0461B
:10106000FF070000FFFF7FFF0B0330B5134D1A0B86
:101070004B005B0DC90F0024AB4211DD104CA342A5
:1010800010DC8024640322430E4CE41A1F2C0CDD78
:101090000D48C31ADA4013005C42002900D11C003D
:1010A000200030BD094BCC18FAE7E040084CA446BC
:1010B00063449A4013000343EEE7C046FE0300007A
:1010C0001D0400003304000013040000FFFFFF7F35
:1010D000EDFBFFFF70B5002830D0C317C4185C408B
:1010E000C50F200000F038F8174B184A1B1AD21A07
:1010F0001F2A18DD164AD21A9440002224035B05E9
:10110000240B5B0D0021100024030A0D1205240B93
:101110001443104A1B0514401C436400ED07640887
:101120002C43210070BD210091400A000B21081AB8
:10113000C4405B052403240B5B0DE3E7002500237B
:1011400000240022DEE7C0461E0400003304000035
:1011500013040000FFFF0F801C2101231B04984291
:1011600001D3000C10391B0A984201D3000A083938
:101170001B09984201D30009043902A2105C4018EF
:101180007047C04604030202010101010000000093
:101190000000000010B50A4C2060012000F0A4FF00
:1011A000002000F091FE00F0B9FE042806D023686C
:1011B000002BF8D023680A209847F4E710BDC046FA
:1011C000A0000020130010B50A000100180001F073
:1011D00068FD10BD10B5074B074A1978002906D0E5
:1011E00011680029F9D013680A209847F3E7012213
:1011F0001A7010BDA4000020A0000020F0B5160059
:10120000002485B000910A0007000100300003941B
:1012100001F038FD03002000A34236D0FFF7DAFFCB
:1012200000F05EFE342000F073FE3400009AA31B31
:101230009A4225D9BD1B2D19AB059B0D01930CD1ED
:10124000280000F08FFE042807D000F059FE6A46FF
:101250000F4B127902201A7017E02100042203A814
:1012600001F01FFD0399280000F098FE04340428C3
:10127000DCD000F045FE0022054B03201A7004E08C
:1012800000F03EFE0020024B187005B0F0BDC046D5
:10129000A400002070B505000E00FFF79BFF00F0D2
:1012A0001FFE242000F034FE2C00AB199C4211DA02
:1012B00080239B02E018800200F054FE042806D030
:1012C00000F01EFE0022064B01201A7007E00134D8
:1012D000A4B2EAE700F014FE0020014B187070BDC4
:1012E000A400002073B50600FC200D00C0030121FE
:1012F000140000F0E5FF684600F0B4FE052E38D873
:101300003000FEF701FF0D030507090B194B09E03B
:10131000194B07E0194B05E0194B03E0194B01E0AD
:101320009023DB0501221100A940042C21D82000C4
:10133000FEF7EAFE03070D1216000022684602714E
:1013400003E00022684602710132C2710BE0002204
:10135000684602710232F8E768460271002201E035
:1013600068460271827189B200911800694600F0E6
:101370003DFE73BD0004004800080048000C004812
:10138000001000480014004810B50B00052815D8BF
:10139000FEF7BAFE0D030507090B094809E00948E5
:1013A00007E0094805E0094803E0094801E090200A
:1013B000C0050121994089B200F067FE10BDC0460A
:1013C0000004004800080048000C004800100048D5
:1013D0000014004810B50A000023052816D8FEF7AF
:1013E00093FE0D030507090B094809E0094807E0CA
:1013F000094805E0094803E0094801E09020C005DC
:101400000121914089B200F039FE0300180010BD9F
:101410000004004800080048000C00480010004884
:10142000001400488020F0B5400189B00D00012172
:101430001C0000F051FF802001AF0121800200F06C
:101440003FFF380000F00EFE0226082339002D4829
:1014500001933E7100F0CAFD00220321294800F0EB
:101460001AFE202339002748019300F0BFFD002217
:101470000521244800F00FFE102339002148019374
:1014800000F0B4FD002204211E4800F004FE822278
:1014900003A952004A80E0220023D2000B808A80F8
:1014A000012D02D1CE800D8101E0CB800B81802304
:1014B0009B004B811023012C03D00023022C00D071
:1014C00038238B81002407230F480B82CC8100F046
:1014D0000FFF21000C4800F04FFF80210A4849010E
:1014E00000F03AFF0121084800F02CFF02210648D5
:1014F00000F050FF0028F9D0034800F039FF09B090
:10150000F0BDC0460004004800300140802010B506
:101510000021400100F0E0FE10BD802010B5012147
:10152000400100F0D9FE10BD10B5094800F01EFFC3
:101530000221074800F02EFF0028F9D001210448BD
:1015400000F028FF0028F9D0014800F011FF10BD7D
:101550000030014010B500F02FF80121084800F0DC
:1015600020FF011E012908D1054800F025FF054B89
:101570001A68002A01D01B68984700F01EF810BDB9
:1015800000040040A800002070B5084C00F014F8DA
:10159000074B20001D6800F013FFC0B2A8470549A3
:1015A000200000F011FF00F008F870BD0038014085
:1015B000AC00002005010500704770470FB404B06F
:1015C00070470000F7B507000D4D00202B68140090
:1015D000019198470B4E3800336898470700019BEC
:1015E000E3180193019B9C4204D02078336898470C
:1015F0000134F7E72B68012098473800FEBDC0464C
:10160000B0000020B4000020F7B507000D4D002009
:101610002B681400019198470B4E380033689847A7
:101620000700019BE3180193019B9C4205D0FF201A
:101630003368984720700134F6E72B6801209847FB
:101640003800FEBDB0000020B4000020034B00288D
:1016500002D1034A1A6000E01860704700000020C1
:10166000BD15000810B5044C206004480160044911
:101670000A60044A136010BDBC000020B0000020C6
:10168000C0000020B4000020F0B5130A8DB0DBB21A
:10169000040A00930992E2B20292009A079008911C
:1016A0000123002A00D00623009ADBB2069353429E
:1016B0005A4103239B1ADBB20593009B5A1E9341A8
:1016C0005B00DBB20493002301936B461B79039309
:1016D0000D2B00D988E01800FEF716FD070D25290F
:1016E0003036AC4B545A616E778008220AAB1A70C0
:1016F00001270024A7E0062407A9CB790AAA5B00EA
:1017000023401370097A022904D0032904D0012947
:1017100007D104E0082100E020210B4313700127CA
:1017200091E02821F9E76A460AAB127C52E06A464A
:10173000127D0AAB1A700127022484E00324029A66
:101740000AAB22401A70EAE707AA91780AAB19702F
:10175000D17803275970117999705179D97092799C
:101760001A71029B012B6DD00427022B6AD005272A
:1017700068E007AB1A787F2313400AAA1370012789
:10178000052460E000220AAB1A70012707245AE002
:101790006A46127E0AAB1A7001271D2453E06A467E
:1017A0003C4B12781A70009B002B43D002220AABEC
:1017B0001A7001271C2446E0009B002B3AD02522FA
:1017C0000AAB1A70012704243DE0009B002B31D0A6
:1017D00002220AAB01271A703C0034E0009B002B68
:1017E00002D020220AAB1A700022E2201100FFF77B
:1017F000E9FE0022E1201100FFF7E4FE002047E0AF
:101800003A0000210AA801F055FA0AAA290020008E
:10181000FFF7FAFE220033681F492048984700244A
:101820000AABE15C1E4B1F481B6801349847E3B2CA
:10183000BB42F5D3019B01330193FF2B00D044E75A
:10184000180025E00B24144D154E2900019A164866
:1018500033689847290033682200144898470025C8
:1018600010220F4E06AB9B18595D0E4833680135A8
:101870009847EBB2BB42F3D32020BDB20AAA29009D
:101880002043FFF79FFE0306BAD503980130C0B28C
:101890000DB0F0BDB8000020F43700081237000882
:1018A000000000200C3700082537000833370008F7
:1018B000F0B51D0085B004000E001700FF23202D99
:1018C00000D983E002AA01210020FFF79DFE10232A
:1018D00002067BD4012202AB1B78134202D0534094
:1018E00002AA1370022202AB1B78012113432020AD
:1018F00002AA1370FFF766FE1123020666D4B6B281
:101900003A0031003020FFF75DFE122302065DD45D
:10191000304B1A780193002A0ED03A0031002A2069
:10192000FFF750FE0200030606D52B4B2B491B6820
:101930002B489847132349E02A4E012033689847E3
:10194000019BA0201B78002B00D11030A9B20A9A6D
:10195000FFF738FE1027050003061CD5019A1E4C20
:1019600011782368204A002900D1204A1B492048C9
:101970009847236829001F489847336800209847F4
:10198000202323E02B783B421AD11B4B0A201B68F3
:1019900098470A3CA4B2092C17D903AD2A000121AB
:1019A0001720FFF731FE02000306EBD50A4B0B4967
:1019B0001B6812489847336800209847212305E0A8
:1019C000336800209847002300E00523180005B085
:1019D000F0BDC046B800002000000020E03600083E
:1019E0006E370008C000002046370008573700084F
:1019F0008E37000886370008BC0000209B3700089F
:101A000013B501AC220001210020FFF7FDFD1023DA
:101A1000020614D402222378134201D053402370CB
:101A2000220001212020FFF7CDFD00230200010646
:101A300005D5044B04491B68044898471123180036
:101A400016BDC04600000020ED360008BB37000878
:101A500013B50F4B00201B6801AC984722000121F1
:101A60000020FFF7D1FD102203060ED423780F3A91
:101A7000134201D053402370220001212020FFF7A0
:101A8000A1FD112243B2DB171A40100016BDC0465B
:101A9000C0000020F0B585B0060001911700FF24BA
:101AA0001F285BD803AD2A0001210020FFF7ACFD01
:101AB000EF3C030652D403222B780121134320204C
:101AC0002A002B70FFF77EFD0134030646D42A005E
:101AD000012132202E70FFF775FD013403063DD43D
:101AE0000025204B01201B68984702AA3D70012168
:101AF0001720FFF789FD0200030606D51A4B1B4984
:101B00001B681B4898470F3C28E0012102AB1C785A
:101B10000C4022D13A006020FFF776FD0200030658
:101B200006D5114B11491B6812489847043415E03B
:101B3000019AB1B26120FFF767FD0200030606D5E6
:101B4000094B0A491B680B489847052406E0220008
:101B50002100E220FFF736FD00E02C00200005B058
:101B6000F0BDC046C000002000000020FE36000886
:101B70009B370008D3370008034B10B51A68002ABA
:101B800001D01B68984710BDC40000200023F0B5A9
:101B90001A0005000F0087B003AE9A5501330B2BD6
:101BA000FBD1002428000A21FEF73EFB2800CBB21F
:101BB0000A210193FEF7B2FA0199631CDAB23031BF
:101BC000051E0092315504D1009B00249F4206D887
:101BD00003E01C1E0B2CE5D1F6E70A240DE0009B68
:101BE000FB1A9C42F9DA30200134FFF7C5FFE4B25A
:101BF000F5E7002C07D0013CE4B2305D0028F8D0B6
:101C0000FFF7BAFFF5E707B0F0BDF0B5040085B007
:101C10000D001700002904D111002800FFF7B6FFBE
:101C200035E001AE09220021300001F043F86122C5
:101C3000002C00D0412200210F20D2B20A3A2B0002
:101C40000340092B01D8303300E09B1873544B1C20
:101C50002D09DCB2072903D01900002DEFD100E0D7
:101C600008240025A7420CD93B1B9D4209DA3020ED
:101C70000135FFF781FFEDB2F6E7002C07D0013CFC
:101C8000E4B2305D0028F8D0FFF776FFF5E705B045
:101C9000F0BD0000F8B507000D0016000024002973
:101CA00009D13F20FFF768FF11E02B78002B0ED001
:101CB000074B9C420BD82978022238000134FFF7E9
:101CC000A4FFA4B20135002EEFD0B442F3D3F8BD87
:101CD000FF0F00000FB4F0B585B00A9D764B774A30
:101CE00010781100002802D0013B002BF8D101230D
:101CF00000240B700BAB03932B78002B00D1D4E0A6
:101D0000252B00D0CCE06B78303BDAB2092A01D920
:101D10006B1C06E00A245C43AB78303BE418E4B269
:101D2000EB1C0093009B1B78662B65D011D8582BB9
:101D300059D009D8482B00D0ADE0039B01201A1DD3
:101D400003921968A2B2A3E0632B2FD0642B35D085
:101D5000A1E0732B16D009D8682B00D09BE0039B21
:101D600000201A1D03921968A2B291E0752B32D09F
:101D7000782B00D08FE0039B00201A1D0392196876
:101D8000220036E0039B1D681A1D0392002D02D02D
:101D90004B4BEE1806E03F200DE0FFF7EDFEB5429D
:101DA0007CD0013528780028F7D177E0039B1868AC
:101DB0001A1D0392C0B2FFF7DFFE6FE0039B1D68A0
:101DC0001A1D0392002D03DA2D20FFF7D5FE6D4278
:101DD0002100280004E02100039B1A1D18680392CB
:101DE000FFF7D4FE5AE0039B01201A1D0392220044
:101DF0001968FFF70AFF51E00722039B073393435B
:101E00001A001E685F680832390030000392FFF73D
:101E10002BF90500FFF75EF902000B0030003900D6
:101E2000FEF7CEFD06000F00002D03DA2D20FFF790
:101E3000A3FE6D4228000021FFF7A8FE2E20FFF729
:101E40009BFE002500221F4B30003900FEF73EFBB1
:101E50000F000600FFF708F90190FFF73BF90200B9
:101E60000B0030003900FEF7ABFD00220023060016
:101E70000F00FEF7EFF9002801D0002D0ED1002150
:101E80000198FFF783FE6B1CDDB2062DDAD105E069
:101E9000FFF700FF02E0009D013D01E0009D02E030
:101EA0002878FFF769FE013526E7044A137005B06C
:101EB000F0BC08BC04B0184741420F00C800002025
:101EC000FF0F000000002440044B10211A68002876
:101ED00001D00A4300E08A431A60704700200240A4
:101EE000044B1A69120603D5034A5A60034A5A6022
:101EF0007047C0460020024023016745AB89EFCD03
:101F00008021024A13690B4313617047002002408D
:101F1000014BD8607047C046002002400120074BAB
:101F2000DA68024209D1DA680018D20605D4D86806
:101F300004231840421E9041181A704700200240A6
:101F400010B50400FFF7EAFF012807D1002C03D0E9
:101F5000FFF7E4FF013CF7E7043002E0002C00D17A
:101F6000052010BD70B50600B0200003FFF7E8FFA4
:101F7000042810D102254022B020074C0003236919
:101F80002B4323616661236913432361FFF7D8FF65
:101F90002369AB43236170BD00200240F7B5060002
:101FA000B020002300030D000193FFF7C9FF0428B0
:101FB00018D10127B0200C4C000323693B43236157
:101FC000ABB23380FFF7BCFF042808D1B020023643
:101FD0000196019B2D0C1D800003FFF7B1FF2369C3
:101FE000BB432361FEBDC04600200240F7B50B682D
:101FF0000193002301249C40019A224094422CD159
:102000000A79551E012D15D85E00B4460326674691
:10201000BE408568B54385604E798568BE402E43D5
:1020200086608588A54385808C7985889C402C4373
:10203000A4B2848003245D00AC40E443AA40066857
:1020400026400660066832430260C2681440C460DD
:10205000CA79C468AA402243C2600133102BC9D197
:10206000F7BD0000044B012203600023427103719D
:102070008371C3717047C046FFFF0000038A194097
:102080000800411E8841C0B27047002A01D081611A
:1020900000E001857047072310B50F240B409B001B
:1020A0009C409A40C90889004018016AA143016216
:1020B000016A0A43026210BD0421064A13698B4378
:1020C0001361012801D130BF02E040BF20BF20BF13
:1020D0007047C04600ED00E00022024B1A701870F5
:1020E0007047C04602100240044B01211A680028C4
:1020F00001D00A4300E08A431A6070470010024092
:10210000064B002804D080211A6849040A4302E0E3
:102110001968034A0A401A607047C046001002401E
:10212000FFFFFFFE0321034A53688B4318435060AF
:102130007047C04600100240F8B50C23594D04000A
:1021400068681840FDF7E0FF1F1F1F1F1F1F1F1F9C
:10215000071F1F1F1D000F21C02368686A68800CBD
:1021600008405B02861C1A4201D14F4806E04D4BE5
:102170004E48DB6A19400131FDF7D0FF7043206003
:1021800004E04B4B00E0494B0020236021686B6862
:102190000A00484E1B061B0FF35CDA401300626016
:1021A0006A685205520FB25CD340A3602A6BD20515
:1021B00001D4414A06E03B4A5268520401D45A080D
:1021C00000E09A08E2602A6B520601D43B4A01E023
:1021D0008022120222612A6BD20602D4334A626143
:1021E00000E0616103222F6B2E4E174201D1A361E3
:1021F00012E0376B1740012F01D1A1610CE0376B62
:102200001740022F02D18022120204E0366B3240C6
:10221000032A01D1254AA261C0222F6B92021742E4
:1022200001D1E36119E01F4E376B8026174076021B
:10223000B74201D1E16110E01A4E376B802617409A
:10224000B602B74202D18022120205E0154E366B6B
:102250001640964201D1154AE261C0222F6B12034B
:10226000104E174215D08027336BFF021340BB423C
:1022700001D121620EE08021336B090313408B42B0
:1022800002D180231B0204E0336B1340934201D13F
:10229000064B23622B6B1B0602D4054B636200E0E6
:1022A0006062F8BD0010024000093D0000127A0093
:1022B000006CDC0204000020809FD500128000002A
:1022C000044B5A69002902D01043586101E082434F
:1022D0005A61704700100240044B9A69002902D0ED
:1022E0001043986101E082439A61704700100240F8
:1022F000C12310B504889B010A881C40CB89134375
:10230000CA8813430A8913434A8913438A891343AA
:10231000234303808288094B13408A881343042295
:1023200083800B8A0382038893434A881343038084
:10233000828B034B1340838310BDC046FFF0FFFF29
:10234000FFF7FFFF40220388002901D0134300E07C
:1023500093430380704700008288034B13408380BF
:102360008388194381807047FFEFFFFF0173704737
:10237000007BC0B270470000002904D0802203888F
:102380009201134302E00288014B1340038070471F
:10239000FFDFFFFF038919400800411E8841C0B2DA
:1023A0007047028A838900209BB2114203D01940F2
:1023B000481E8141C8B27047C94389B20182704743
:1023C000808CC005C00D70470123090C8B4003624F
:1023D000704700001FB51C00232301900291039257
:1023E0002370042201A9601C00F05BFC4023022240
:1023F000637102A9A01D00F054FC242320000A21CF
:10240000237202226944093000F04BFC20000422B0
:1024100003A90B3000F045FC2100230000220F31FE
:102420001878013342408B42FAD12A232274E37395
:1024300010210248FFF74EFC1FBDC04601380008BE
:1024400010B50400227808000123232A1BD16278EA
:10245000DB18412A17D1E1181A0000F022FC2300F2
:102460000022211D1878013342408B42FAD1217994
:1024700003232A2907D1617900238A4203D0034824
:10248000FFF728FC0423180010BDC0460C380008D4
:1024900010B50400227808000123232A21D1627894
:1024A000DB18552A1DD1A278492A1AD1E278442A8C
:1024B00017D11A00211D00F0F4FB23000022A11DFA
:1024C0001878013342408B42FAD1A17903232A299B
:1024D00007D1E17900238A4203D00348FFF7FAFBD2
:1024E0000423180010BDC0460C38000810B50122A6
:1024F000092803D90A21FDF711FE02000021034B30
:10250000196019688A42FCD810BDC046D00000206E
:1025100001384242424110B5D2B207210120FEF7F4
:1025200033FF10BD01384242424110B5D2B20621FC
:102530000120FEF729FF10BD10B501000120FEF7B4
:10254000F3FF10BDF0B591B003AE05007260080056
:1025500011001A001B2300246B441C700BAC2300D9
:10256000FFF738FF012002950895FEF7D6FF00948B
:10257000122308AA04216420FFF79AF9041E2BD124
:102580000A27FE341B256D442A0009A90720FFF7FE
:1025900081FA2A7816491748FFF79CFB2B78052B00
:1025A0000FD907AD290009A8FFF74AFF041E08D17B
:1025B0002A88B3889A420CD10D490F48FFF78AFB4D
:1025C00008E00A20FFF792FF7B1E9FB2002FD9D1AF
:1025D00000E0FF24FFF73CFA0120FEF797FF2200FE
:1025E00003490648FFF776FB200011B0F0BDC04656
:1025F0001C3800082A380008393800084938000813
:1026000070B50C004508002C12D02800FFF76EFFB3
:10261000002101220800FEF7B7FE2800FFF766FF41
:102620000022013C11001000FEF7AEFEA4B2EAE762
:1026300070BD0000F0B5002591B000F079FA0020DF
:10264000FFF74AFD0120FFF74FFD0020FFF758FD7F
:1026500006AC0020FFF766FD22000621A248FEF727
:10266000B1FD2B00625DFF2A00D163550135062DB7
:10267000F8D1200000F0DAFA9C4E9D4F30433860CC
:10268000032207210120FEF72DFE0322290001204D
:10269000FEF728FE002103220800FEF723FE012298
:1026A00000201100FEF71EFE012202210020FEF78D
:1026B00019FE012203210020FEF714FE01220C2145
:1026C0000020FEF70FFE012205210020FEF70AFE82
:1026D000012229000020FEF705FE0122072100202B
:1026E000FEF700FE012208210020FEF7FBFD01227B
:1026F00011001000FEF7F6FD012200211000FEF788
:10270000F1FD0022022311000120FEF78BFE2000C4
:10271000FFF712FD64210698FDF700FD754B0138A7
:1027200000969842FDD8C021734A744D50602B6AC0
:1027300009061B021B0A0B432B6200260723966027
:1027400030001360FEF726FD6D48FEF77FFF6D4BEE
:102750006D4A6E496E48FEF785FF02216420FFF73F
:102760004FFF39686B48FFF7B5FA3B6812200493B6
:102770000223637002ABC018042204A900F091FA8E
:10278000022323700323E371023B667223720A362D
:1027900001950120FEF7C1FE6168A2682068FEF77E
:1027A00073FF05000120FEF7B1FE29005A48FFF72C
:1027B00091FA002D11D1FA2001218000FFF720FFAE
:1027C0005648FFF787FA3B68009A93426AD102ABFA
:1027D0005E1D9F1D35703D800EE0FA20013E4000D9
:1027E000F6B2FFF783FE002ED3D14D48FFF772FA01
:1027F0000120FFF761FCFBE7FA2001218000FFF7D1
:10280000FFFE0120FEF789FE320021000920FFF7BC
:1028100041F90120FEF77AFE327842494248FFF73B
:1028200059FA3378072BE7D939002000FFF730FE3B
:102830000028E1D13B883D4A062104A800F042FA75
:1028400004AA06212848FEF7D9FCBFF34F8F384B66
:10285000019AD360BFF34F8FFEE7364E31780029DF
:1028600020D0354B354A1B7812783548FFF732FABD
:102870003B682360334B1B68A3801123E3803378CC
:1028800035700326237221686268A3682E48FFF71B
:1028900059FE002820D101216430FFF7B1FE01224A
:1028A0002A4B1A600120FEF738FEFFF7A9F8012035
:1028B000FEF72CFE0120FFF7FFFB254E3378032B9C
:1028C000CBD12448FFF706FA01211F20FEF7E2FCD6
:1028D000009B35703B60C0E7013EF6B2002ED2D1BE
:1028E00002216420D9E7C046007C000800002B1AB2
:1028F000DC000020FFFFFF0010E000E000ED00E042
:10290000D51C0008392500081125000825250008D8
:10291000ED240008563800087A380008A13800086D
:1029200091380008D93800082A380008D63800083D
:102930000400FA05CC000020CB000020CA000020D3
:10294000BB380008D80000204D3C2B1A180000208E
:10295000D4000020AF380008554A70B51368012133
:1029600001331360534A00201368022401331360BB
:10297000FEF730FD022105000020FEF72BFD0028A8
:1029800002D06C426C41E4B203210020FEF722FD2C
:10299000002800D103240C210020FEF71BFD002895
:1029A00000D1042405210020FEF714FD002800D1E9
:1029B000052406210020FEF70DFD002800D1062485
:1029C00007210020FEF706FD002800D1072408217A
:1029D0000020FEF7FFFC002800D108240121080098
:1029E000FEF7F8FC002800D1092400210120FEF7A1
:1029F000F1FC002802D0002C47D000E00A242E4B26
:102A00001A78A2423ED02D4A1C701470012C04D1B9
:102A10002B4A13780133137034E02A4B022C02D175
:102A20001A7801322DE026490A780800022A0AD1D4
:102A30001A78042A0ED1BFF34F8F234A234BDA6052
:102A4000BFF34F8FFEE7012A0BD11978032916D166
:102A50001F4913E0022A12D11D490C78012C09D11B
:102A60000CE0032A0BD11978012908D118490C78F8
:102A7000022C03D00021164A117000E00A700022D7
:102A800002701A700022134B1A60124B1A681D2A2A
:102A900003D90022084B1A7002E01A6801321A604A
:102AA0000D4B1A68002A02D01A6801321A6070BDF4
:102AB000D0000020D8000020C9000020CC00002059
:102AC000CA000020CB0000200400FA0500ED00E061
:102AD000D400002014000020180000200D48854676
:102AE000002103E00C4B5B58435004310B480C4B66
:102AF00042189A42F6D30B4A02E0002313600432D4
:102B0000094B9A42F9D300F013F800F095F8FFF75B
:102B100091FDFEE7001000201C3A00080000002094
:102B20008400002084000020F0000020FEE7000068
:102B30000121364B82B01A680A431A605868344A39
:102B400002405A601868334A02401A601868324AD4
:102B500002401A605868314A02400F205A60DA6A0F
:102B60008243DA62186B2E4A02401A635A6B802045
:102B70008A435A63002280219A60009201921A6867
:102B800049020A43A0211A608002C9011A68024062
:102B90000192009A01320092019A002A02D1009A11
:102BA0008A42F3D18022196892020A4000D00122A1
:102BB0000192019A012A27D111211A4A11605A68FB
:102BC0005A605A685A605968174A0A4080215A6008
:102BD0005A6849020A4380215A601A6849040A4324
:102BE00080211A6089041868084A0842FBD0032033
:102BF00051688143516051680138014351600C2193
:102C00005A680A40082AFBD102B0704700100240FF
:102C10000CB8FF08FFFFF6FEFFFFFBFFFFFFC0FF42
:102C2000ACFEFFFF00200240FF7FC0FF10B50A226C
:102C3000002100F00BF910BD0E4B70B500251E00F1
:102C40000D4CE41AA410A54204D0AB00F3589847E9
:102C50000135F8E700F018FD084B00251E00084C70
:102C6000E41AA410A54204D0AB00F35898470135EC
:102C7000F8E770BD143A0008143A0008143A000846
:102C8000183A000830B50024A24208D0035D651C44
:102C90000C5DA34201D0181B02E02C00F4E70020D9
:102CA00030BD002310B59A4203D0CC5CC45401332C
:102CB000F9E710BD03008218934202D01970013366
:102CC000FAE770470CB430B5164B9DB00C1E1D686A
:102CD00004DA8B2301202B6040421DE0822302A9ED
:102CE0009B008B810023029008619C4200D0631EF0
:102CF0008B604B6101235B42CB81209A21AB280082
:102D0000019300F071F9431C01DA8B232B60002C36
:102D100002D00023029A13701DB030BC08BC02B070
:102D20001847C04680000020F0B51E00454B87B014
:102D30001B680192029308220B00059003911C78F6
:102D400002995D1C09194878104001D02B00F6E764
:102D50002D2C04D19D1C5C780123009304E000908D
:102D60002B2C01D15C789D1C002E02D0102E0AD194
:102D700062E0302C5ED120222B789343582B54D123
:102D800010266C780235009F31007B1E9F412E4B30
:102D9000FF183800FDF748FA380004913100FDF7BC
:102DA000BDF900230322070094461800029A121965
:102DB00051780422114201D0303C07E062461140B4
:102DC00017D03722012900D02032A41AA64210DDE4
:102DD0005A1C0BD0B84207D802D1049B9C4203DC9A
:102DE00070430123201801E001235B422C78013558
:102DF000DCE75A1C0BD10098059A431E9841124BF0
:102E0000C01822231360019B002B0AD117E0009AFF
:102E1000002A00D04042019A002A10D0039A002BC9
:102E200000D06A1E019B1A6009E03024002EAAD14E
:102E30000826A8E70A26A6E7302C9CD0A3E707B00F
:102E4000F0BDC0461C000020FFFFFF7F10B513003F
:102E50000A00010002480068FFF766FF10BDC04687
:102E600080000020032370B5CD1C9D43083506006B
:102E70000C2D01D20C2501E0002D01DBA94202D965
:102E80000C23336048E0300000F06EFB234B1C68DD
:102E90001A002100002913D00B685B1B0DD40B2BEB
:102EA00002D90B60CC181EE08C4202D1636813601B
:102EB0001AE04B6863600C0016E00C004968E9E713
:102EC000174C2368002B03D1300000F01BFB20605F
:102ED0002900300000F016FB431C18D00323C41C4B
:102EE0009C43A0420DD12560300000F03EFB200045
:102EF00007220B30231D9043C31A0ED05A42E250D2
:102F00000BE0211A300000F0FDFA431CEBD10C233A
:102F10003000336000F029FB002070BDE400002089
:102F2000E0000020F0B58E6885B007000C00039229
:102F300001939E4243D890238A89DB001A423ED0F7
:102F400003250969236801985B1A029363695D434D
:102F5000EB0F5D19029B6D1001331B18AB4200D9BA
:102F60001D00530510D529003800FFF77BFF061E12
:102F700014D0029A2169FFF794FEA289194B1340DD
:102F800080221343A38112E02A00380000F03AFBAC
:102F9000061E0CD12169380000F0E8FA0C2340220B
:102FA00001203B60A38940421343A38117E0029BA9
:102FB0002661F61826606561019EED1AA560019BE9
:102FC000B34200D21E0032000399206800F0B7FA25
:102FD0000020A3689B1BA36023689E19266005B090
:102FE000F0BDC0467FFBFFFFF0B59FB00290059398
:102FF0008B890F0016001B0610D50B69002B0DD115
:103000004021FFF72FFF38603861002804D10C23DE
:10301000029A01381360D8E040237B61002306AD9B
:103020006B6120336B761033AB7634002378002B42
:1030300003D1A31B049312D003E0252BF9D0013454
:10304000F4E7A31B320039000298FFF76BFF431C23
:1030500000D1B4E06A69049B944663446B612378B1
:10306000002B00D1ABE00122002352426A6002A98A
:103070005432521801342B60EB60AB601370AB65B7
:10308000534E21780522300000F04EFA002807D078
:103090000123801B83402A68013413432B60EFE730
:1030A0002B68DA0604D55322202102A812181170C9
:1030B0001A0704D553222B2102A812181170227866
:1030C0002A2A03D0099B00200A210EE0059A111D2F
:1030D00012680591002A01DB099204E05242EA607D
:1030E000022213432B6001340BE02278303A092A84
:1030F00004D84B4301349B180120F6E7002800D088
:10310000099323782E2B1ED163782A2B0AD1059B95
:1031100002341A1D1B680592002B01DA01235B4261
:10312000079310E000230A201A0001346B60217815
:103130003039092904D84243013452180123F6E7F3
:10314000002B00D00792234E21780322300000F09C
:10315000EBF9002806D04023801B83402A68013405
:1031600013432B60217806221B48661C297600F049
:10317000DBF9002812D0194B002B06D10722059B42
:10318000073393430833059314E005AB00933A00EB
:10319000134B2900029800E000BF07E005AB009345
:1031A0003A000F4B2900029800F08AF80390039B25
:1031B000013304D06B69039A9B186B6135E7BB89B7
:1031C0000B985B0601D5012040421FB0F0BDC04600
:1031D000E1390008E7390008EB3900080000000079
:1031E000252F0008F7B5170001938A680B69009036
:1031F0000C00934200DA130022003B604332127845
:10320000002A01D001333B6023689B0602D53B684E
:1032100002333B60062523681D401ED02300433344
:103220001B785A1E9341226892061CD53020E11863
:103230004331087021005A1C45310978A2184332E5
:10324000023311700FE02200012319320199009816
:10325000089EB047431C0ED00135E3683A689B1ABC
:103260009D42F0DBDAE72200019943320098089D85
:10327000A847431C02D10120404220E006232068D9
:10328000E1683A6803400025042B03D18D1AEB4313
:10329000DB171D40A3682269934201DD9B1AED18DC
:1032A0000027BD420AD0220001231A32019900985A
:1032B000089EB047431CDED00137F2E70020FEBD78
:1032C000F0B58BB006920A00433207930590049242
:1032D0000A7E0C00109B6E2A00D1ABE011D8632A45
:1032E00022D009D8002A00D1B5E0582A00D0C5E084
:1032F00045310A70814A4FE0642A1DD0692A1BD0EB
:10330000BCE0732A00D1AAE009D86F2A29D0702A1C
:1033100000D0B3E0202209680A43226037E0752A12
:103320001FD0782A33D0A9E00E001A684236111D4A
:10333000196013683370A4E021681A68080606D47F
:10334000490604D5111D19600023D55E02E0111D48
:1033500019601568002D3BDA2D23049A6D42137015
:1033600036E021681A68080606D4490604D51568AF
:10337000111D1960ADB202E0111D196015685F4B97
:10338000227E039308276F2A1DD00A271BE0220004
:103390007821453211705A4A19680392081D226833
:1033A00018600D68100602D4500600D5ADB2D307E0
:1033B00002D520231A4322601027002D03D1202399
:1033C00022689A4322602300002243331A7002E0ED
:1033D0000A274A4B03936368A360002B09DB04228E
:1033E000216891432160002D05D1049E002B11D04E
:1033F0007BE0002D79D0049E28003900FCF714FFF3
:10340000039B013E5B5C280033703900FCF786FEAD
:10341000051EF1D1082F09D12368DB0706D56368A3
:103420002269934202DC3023013E3370049B9B1BD4
:1034300023612BE009681A68080607D4490605D5F8
:10344000111D19601368A28A1A8004E0111D196009
:10345000136862691A600023049E236116E01A68EB
:10346000111D1960166800216268300000F05CF8D8
:10347000002801D0801B6060636803E026004236AC
:103480003270012323610023049A1370079B09AA59
:1034900000932100069B0598FFF7A4FE431C02D170
:1034A0000120404227E02369320006990598079DD4
:1034B000A847431CF4D0236800259B070FD4099B21
:1034C000E068984217DA180015E02200012319324B
:1034D00006990598079EB047431CE1D00135E36883
:1034E000099A9B1A9D42F0DBE9E72600039B4236CE
:1034F0001B7833708EE70BB0F0BDC046F239000880
:10350000033A0008002370B5064C0500080023604C
:1035100000F0AAF8431C03D12368002B00D02B60D5
:1035200070BDC046EC000020C9B28218904204D0A1
:1035300003788B4202D00130F8E70020704710B5C5
:10354000884202D98B18984201D3002305E09B1AC8
:10355000013A08D3995C8154FAE7934203D0CC5CDA
:10356000C4540133F9E710BD7047704770B50500CA
:10357000002944D00C1F2368002B00DAE41828002F
:10358000FFF7F2FF1E4A13681100002B02D163609F
:10359000146031E0A3420DD92268A018834203D100
:1035A00018685B688218226063600C6024E0A242A5
:1035B00003D813005A68002AF9D11E689819A0424E
:1035C0000BD12168711858181960824214D1106803
:1035D0005268411819605A600EE0A04202D90C23CB
:1035E0002B6009E021686018824203D1106852689C
:1035F0004118216062605C602800FFF7B6FF70BD73
:10360000E4000020F8B506000C001500002904D1E4
:103610001100FFF727FC040018E0002A03D1FFF790
:10362000A5FF2C0012E000F013F885420ED9290006
:103630003000FFF717FC071E07D021002A00FFF714
:1036400030FB21003000FFF791FF3C002000F8BD67
:103650000B1F1A68101F002A04DA891804390B6836
:10366000D018043870470000054B02001968002983
:1036700001D104491960186882181A607047C04661
:10368000E8000020F0000020F8B5C046F8BC08BCF7
:103690009E467047F8B5C046F8BC08BC9E467047C9
:1036A000BC0600087C0500087C0500087A050008B7
:1036B0009406000894060008860600087A050008AB
:1036C0009406000886060008940600087A0500089B
:1036D0009C0600089C0600089C0600089C08000840
:1036E0006E524632344C30315F736E64006E524617
:1036F00032344C30315F707772446F776E006E52A7
:103700004632344C30315F726563760020253032AA
:1037100058000D0A2025733A5265673D25582072DE
:103720004461743D000D0A2025733A737465703D41
:103730002575000D0A2025733A5265673D255820EE
:10374000774461743D00434D445F575F54585F5068
:1037500041594C4F414400434D445F575F54585FBB
:103760005041594C4F41445F4E4F41434B000D0A6D
:103770002025733A577274205245475F52585F4173
:103780004444525F50303A7374743D2558000D0A1A
:103790002025733A577274202573000D0A20257373
:1037A0003A5264205245475F4649464F5F53544161
:1037B0005455533A7374743D2558000D0A202573EF
:1037C0003A57727420434F4E4649473A7374743DDA
:1037D0002558000D0A2025733A526420434D445F5A
:1037E000525F52585F5041594C4F41443A73747480
:1037F0003D2558006E524632344C30315F696E6957
:10380000000D0A205B25755D3D2558000D0A2043FB
:10381000686B73756D3A25582F2558007472616E68
:10382000736D69745F64617461000D0A2025733AD9
:1038300052586C656E3D2575000D0A2025733A417E
:10384000434B706173736564000D0A2025733A72EF
:1038500065733D2575000D0A202B2D2D2D2D2D2056
:10386000564F54494E472052454D4F5445205B25F5
:10387000585D202D2D2D2D2D2B000D0A206E52462A
:1038800032344C30315F696E693A7265733D25752B
:10389000000D0A205246206E6F74207265616479B3
:1038A000000D0A20476F20746F206C6F6F70000D41
:1038B0000A204572617365554944000D0A206B6505
:1038C000795F3273656E643D257520636B313D25EC
:1038D0007520636B323D2575006D61696E000020B7
:1038E00020202020202020202828282828202020B0
:1038F0002020202020202020202020202020208860
:1039000010101010101010101010101010101004C3
:103910000404040404040404041010101010101013
:103920004141414141410101010101010101010107
:10393000010101010101010101011010101010101D
:1039400042424242424202020202020202020202D7
:1039500002020202020202020202101010102000F3
:103960000000000000000000000000000000000057
:103970000000000000000000000000000000000047
:103980000000000000000000000000000000000037
:103990000000000000000000000000000000000027
:1039A0000000000000000000000000000000000017
:1039B0000000000000000000000000000000000007
:1039C00000000000000000000000000000000000F7
:1039D00000000000000000000000000000000043A4
:1039E00000232D302B2000686C4C0065666745462F
:1039F0004700303132333435363738394142434469
:103A000045460030313233343536373839616263F8
:043A10006465660083
:043A1400E9000008BD
:043A1800C1000008E1
:103A1C00BD150008000000000102030401020304AC
:103A2C00060708090100000001000000DE3800084C
:103A3C00000000000000000000000000000000007A
:103A4C00000000000000000000000000000000006A
:103A5C00DF3900080000000000000000000000003A
:103A6C00000000000000000000000000000000004A
:103A7C00000000000000000000000000000000003A
:103A8C00000000000000000000000000000000002A
:043A9C0020000020E6
:0400000508002ADDE8
:00000001FF
